:100000000C9434010C9451010C9451010C94510145
:100010000C9451010C9451010C9451010C94510118
:100020000C9451010C94B5030C9451010C94910360
:100030000C9451010C9451010C9451010C945101F8
:100040000C9451010C9451010C946D030C944903D0
:100050000C943A030C9451010C9451010C945101ED
:100060000C9451010C94510100C0C101C30302C2A0
:10007000C60607C705C5C404CC0C0DCD0FCFCE0EE8
:100080000ACACB0BC90908C8D81819D91BDBDA1A58
:100090001EDEDF1FDD1D1CDC14D4D515D71716D6C8
:1000A000D21213D311D1D010F03031F133F3F23238
:1000B00036F6F737F53534F43CFCFD3DFF3F3EFEA8
:1000C000FA3A3BFB39F9F83828E8E929EB2B2AEA18
:1000D000EE2E2FEF2DEDEC2CE42425E527E7E62688
:1000E00022E2E323E12120E0A06061A163A3A262F8
:1000F00066A6A767A56564A46CACAD6DAF6F6EAE68
:10010000AA6A6BAB69A9A86878B8B979BB7B7ABAD7
:10011000BE7E7FBF7DBDBC7CB47475B577B7B67647
:1001200072B2B373B17170B05090915193535292B7
:1001300096565797559594549C5C5D9D5F9F9E5E27
:100140005A9A9B5B99595898884849894B8B8A4A97
:100150004E8E8F4F8D4D4C8C448485458747468607
:10016000824243834181804000C1814001C080417F
:1001700001C0804100C1814001C0804100C1814077
:1001800000C1814001C0804101C0804100C1814067
:1001900000C1814001C0804100C1814001C0804157
:1001A00001C0804100C1814001C0804100C1814047
:1001B00000C1814001C0804100C1814001C0804137
:1001C00001C0804100C1814000C1814001C0804127
:1001D00001C0804100C1814001C0804100C1814017
:1001E00000C1814001C0804101C0804100C1814007
:1001F00000C1814001C0804100C1814001C08041F7
:1002000001C0804100C1814000C1814001C08041E6
:1002100001C0804100C1814001C0804100C18140D6
:1002200000C1814001C0804100C1814001C08041C6
:1002300001C0804100C1814001C0804100C18140B6
:1002400000C1814001C0804101C0804100C18140A6
:1002500000C1814001C0804100C1814001C0804196
:1002600001C0804100C1814011241FBECFEFD8E002
:10027000DEBFCDBF12E0A0E0B1E0EAE4F5E202C0EB
:1002800005900D92A433B107D9F725E0A4E3B2E0BD
:1002900001C01D92A33BB207E1F70E94FE040C943B
:1002A000A3120C940000ECE7F0E080818F7B808348
:1002B00080818F77808380818F7D80838081877F1D
:1002C000808380818B7F808380818D7F808380810C
:1002D0008E7F8083EAE7F0E0808181608083808187
:1002E000826080838081846080838081877F808337
:1002F0008081806280838081806480838081806847
:100300008083EBE7F0E080818E7F808380818D7F2A
:10031000808380818B7F808380818F7B8083089521
:10032000ECE7F0E080818064808380818F77808338
:1003300080818F7D80838081877F808380818B7F98
:10034000808380818D7F808380818E7F8083EAE7B8
:10035000F0E0808181608083808182608083808101
:10036000846080838081877F8083808180628083B6
:10037000808180648083808180688083EBE7F0E007
:1003800080818E7F808380818D7F808380818B7F41
:10039000808380818F7B808308954F925F926F92DC
:1003A0007F928F929F92AF92BF92CF92DF92EF9205
:1003B000FF920F931F93CF93DF93CDB7DEB72797AD
:1003C0000FB6F894DEBF0FBECDBF2B013C01490133
:1003D0005A01E982FA820B831C8380917800209174
:1003E000790030E0322F2227282B3F832E83B9015A
:1003F00080E090E00E9408116B017C0110922104C2
:100400008E819F818D5A92408C33914060F0809113
:100410001F049091200401969093200480931F0460
:100420006CE677E04AC029813A814B815C81C50145
:10043000B4010E949B119B01AC01C701B6010E944F
:100440009B1169837A838B839C8320E030E040E8B2
:1004500054E4C301B2010E949B112B013C01A50190
:100460009401C701B6010E949B119B01AC01C3011D
:10047000B2010E94FA0F9B01AC0169817A818B81E4
:100480009C810E94671020E030E04AE754E40E941B
:10049000FA0F20E030E040E251E40E949B1121E29B
:1004A00030EB42E750E40E9467100E94D9106C596B
:1004B0007F4F1092200410921F0480911F0490918E
:1004C0002004459748F084E190E0909320048093C5
:1004D0001F0481E080932104CB0127960FB6F89486
:1004E000DEBF0FBECDBFDF91CF911F910F91FF9067
:1004F000EF90DF90CF90BF90AF909F908F907F90C4
:100500006F905F904F9008958F929F92AF92BF929D
:10051000CF92DF92EF92FF920F931F93CF93DF93CF
:100520006B017C0180917800C0917900D0E0DC2FD4
:10053000CC27C82BBE0180E090E00E9408114B013F
:100540005C0110922104C258D109CD35D34060F02E
:1005500080911F0490912004019690932004809331
:100560001F048CE697E069C01092200410921F04CB
:10057000A7019601C501B4010E949B116B017C018A
:10058000A501940160E070E080E894E40E94FA0F15
:100590009B01AC01C701B6010E9467100E94D910EF
:1005A000EB0121E030E080E090E02D3831050CF0E7
:1005B00044C0F901EE0FFF1FE050FF4FA081B18151
:1005C000CA17DB0768F4C901880F991F880F991FA4
:1005D000880F991FB901660F771F860F971F2AC0D2
:1005E000215031098901000F111FC80180509F4F10
:1005F000FC0160817181AB014C1B5D0BCA01880F4E
:10060000991F440F551F440F551F440F551F840F4A
:10061000951F6A1B7B0B0E942C12220F331F220F87
:10062000331F220F331F200F311FCB01820F931F67
:100630002EE830E02F5F3F4FB8CF20911F0430915C
:1006400020042531310548F024E130E030932004C6
:1006500020931F0421E020932104DF91CF911F916B
:100660000F91FF90EF90DF90CF90BF90AF909F9051
:100670008F9008951F920F920FB60F9211248F93AF
:1006800088B1877F88B98F910F900FBE0F901F9010
:1006900018951F920F920FB60F9211242F933F932C
:1006A0004F935F936F937F938F939F93AF93BF937A
:1006B000EF93FF930E94620DFF91EF91BF91AF9175
:1006C0009F918F917F916F915F914F913F912F916A
:1006D0000F900FBE0F901F9018951F920F920FB69C
:1006E0000F9211242F933F934F935F936F937F93B8
:1006F0008F939F93AF93BF93EF93FF930E94180D37
:10070000FF91EF91BF91AF919F918F917F916F91E9
:100710005F914F913F912F910F900FBE0F901F90BF
:1007200018951F920F920FB60F9211242F933F939B
:100730004F935F936F937F938F939F93AF93BF93E9
:10074000EF93FF930E94A00DFF91EF91BF91AF91A6
:100750009F918F917F916F915F914F913F912F91D9
:100760000F900FBE0F901F9018951F920F920FB60B
:100770000F9211248F938FEF809307048F910F9026
:100780000FBE0F901F9018951092B200E1EBF0E0B1
:10079000808187608083E0E7F0E0808181608083F2
:1007A0000895DC01611522E07207D8F0CB01840FB7
:1007B000951F81319240B8F4725041155105A9F04E
:1007C000FB01EE0FFF1FE75BFB4F81818C93808164
:1007D00011968C9311976F5F7F4F4150510912967C
:1007E000ECCF81E0089581E0089580E00895FC0158
:1007F000603132E07307F0F0CB01840F951F813236
:100800009240C0F4211116C0CB0180519240411595
:100810005105A1F0DC01AA0FBB1FA75DBB4F1196CC
:100820003C91119730833C9131830196415051099D
:100830003296EDCF222321F080E003C080E001C09A
:1008400081E0603192E0790720F1DA01A60FB71F4D
:10085000A132B240F0F42130E1F460517240411510
:100860005105D1F0808190E0982F8827DB01AA0FF5
:10087000BB1FA75DBB4F11969C938E932181820F66
:10088000911D8D939C9332966F5F7F4F415051091C
:10089000E6CF213021F402C080E0089581E0089580
:1008A000CF93DF93EC0180915D0290915E028C3DCD
:1008B0002FEF920788F0C03F81E0D80740F46096A0
:1008C000BE0180916102909162020E94801210929A
:1008D0005E0210925D0205C0019690935E028093C5
:1008E0005D0260915D0270915E02CE0102960E94EF
:1008F0008012809150028C3338F110925002809116
:100900005B0290915C02019690935C0280935B0283
:10091000CC9790F010925C0210925B0260915902A9
:1009200070915A026F5F7F4F70935A026093590221
:10093000CE0106960E94801260915B0270915C026B
:10094000CE0104960E94801280914F028C3338F1C0
:1009500010924F0280915702909158020196909305
:10096000580280935702CC9790F010925802109240
:10097000570260915502709156026F5F7F4F7093DE
:10098000560260935502CE010A960E948012609131
:10099000570270915802CE0108960E9480128091F1
:1009A0004E028C3338F110924E0280915302909196
:1009B000540201969093540280935302CC9790F086
:1009C000109254021092530260915102709152029F
:1009D0006F5F7F4F7093520260935102CE010E966B
:1009E0000E9480126091530270915402CE010C96C5
:1009F0000E948012CE01DF91CF91089588E893E1A3
:100A0000909372048093710484EC99E09093700445
:100A100080936F0480ED97E090936E0480936D0453
:100A200080916102909162020E947A12EC0190938F
:100A3000600280935F0202960E947A1290935E0297
:100A400080935D02CE0104960E947A1290935C021C
:100A500080935B02CE0106960E947A1290935A020E
:100A600080935902CE0108960E947A129093580200
:100A700080935702CE010A960E947A1290935602F2
:100A800080935502CE010C960E947A1290935402E4
:100A900080935302CE010E960E947A1290935202D6
:100AA0008093510214B88FEF85B917B818B81AB8E7
:100AB0008BB987B1886087B988B1877F88B987B1DA
:100AC000806287B987B1806187B98AB180628AB94B
:100AD0008AB184608AB984B1846084B984B1826047
:100AE00084B987B1846087B988B18E7F88B90E9444
:100AF000C40378940E94900180E180930604F894E6
:100B0000E12C00E815E220E030E040E060910604CE
:100B100080E00E9472098093050423E030E040E306
:100B200052E061E084E30E94110C80930504789404
:100B30000E94BD0980930504A8959EE088E10FB648
:100B4000F894A895809360000FBE909360000E9477
:100B500090010E94CC09811147C1A895E9E2F4E017
:100B60008281938190936C0480936B04848195813E
:100B700090936A0480936904C085D185D0937204F0
:100B8000C0937104028513851093700400936F0461
:100B90006485758570936E0460936D04868197817A
:100BA00021E080FF20E020934B0221E081FF20E044
:100BB00020934A0221E082FF20E02093490221E0B5
:100BC00083FF20E02093480221E084FF20E020936F
:100BD000470221E085FF20E02093460221E086FFC6
:100BE00020E02093450221E087FF20E0209344028B
:100BF00021E090FF20E02093430231E091FF30E0BC
:100C00003093420231E092FF30E03093410231E014
:100C100093FF30E03093400231E094FF30E03093B6
:100C20003F0231E095FF30E030933E0231E096FF25
:100C300030E030933D02892F881F8827881F8093DA
:100C40003C0280913B02281741F0222319F00E94B8
:100C50005301C6C00E949001C3C02223D9F180E095
:100C600090E00E9408116B017C01B80180E090E0E7
:100C70000E9408114B015C01BE0180E090E00E94DF
:100C8000081187017601A50194010E94CD0190937E
:100C9000F6038093F5038C3627E0920708F041C0F5
:100CA000BC0180E090E00E94081120E030E040E2CA
:100CB00051E40E94671020E030E040E251E40E94DD
:100CC000FA0F6093F7037093F8038093F9039093FE
:100CD000FA0327C080E090E00E9408110E9484027D
:100CE0009093F6038093F5038C3627E09207C8F4BF
:100CF000BC0180E090E00E94081120E030E040E27A
:100D000051E40E94671020E030E040E251E40E948C
:100D1000FA0F6093F7037093F8038093F9039093AD
:100D2000FA0380916402E82FF0E0EE0FFF1FEE0F50
:100D3000FF1FEB59FD4F4091F7035091F80360916D
:100D4000F9037091FA0340835183628373838F5F49
:100D500080936402843610F0109264021092FB03B8
:100D60001092FC031092FD031092FE03C0E0D0E04D
:100D7000C436D105FCF4FE01EE0FFF1FEE0FFF1F7E
:100D8000EB59FD4F60817181828193812091FB033A
:100D90003091FC034091FD035091FE030E94FB0F34
:100DA0006093FB037093FC038093FD039093FE0319
:100DB0002196DECF20E030E048EC52E46091FB0366
:100DC0007091FC038091FD039091FE030E946710D7
:100DD0006093FB037093FC038093FD039093FE03E9
:100DE0008091430280933B0280910704882309F499
:100DF00068C00E94550E10920704809104048F5F12
:100E0000809304048D3308F450C010920404909130
:100E100039028091380220913702892B11F4222364
:100E200029F0809150028F5F8093500280913A02A6
:100E3000882329F080914F028F5F80934F02809129
:100E40003402882329F080914E028F5F80934E02F6
:100E500091E0809150028C3308F490E081E0209181
:100E60004F022C3308F480E0892B91E020914E0250
:100E70002C3308F490E0811102C0992351F0809145
:100E80005F02909160020E945004909360028093F0
:100E90005F0280914C0290914D028230910528F0C2
:100EA000019790934D0280934C02809142028823D7
:100EB00021F081E08093630204C080911E0480933E
:100EC00063029091630220914B0280914A02822B2F
:100ED0009923B1F18823A1F160916B0470916C04A6
:100EE00080E090E00E9408114B015C0120E030E0BE
:100EF00040E050E40E94FA0FC090FB03D090FC0346
:100F0000E090FD03F090FE03A70196010E94961168
:100F100018161CF481E080933A0220E030E040E0B3
:100F200050E4C501B4010E94FB0F9B01AC01C70155
:100F3000B6010E94961118162CF410923A0202C0C3
:100F400010923A026091690470916A0480E090E026
:100F50000E940811C1E02091FB033091FC034091F5
:100F6000FD035091FE030E94961118160CF0C0E08C
:100F700080916302CC2379F0882369F08091490243
:100F80008093390280914802809338028091470211
:100F90008093370206C010923902109238021092E4
:100FA0003702E0903902F0903802D09037028E2D4F
:100FB0008F2911F4DD2031F088E592E090934D0205
:100FC00080934C02C091440281E020914C02309108
:100FD0004D022330310508F480E0C82BC09336025F
:100FE000009146020093350210914502D0916302B0
:100FF0001D231093340220E030E048EC52E460916D
:10100000FB037091FC038091FD039091FE030E940D
:10101000FB0F20E030E048EC52E40E949B110E945C
:10102000D91070934C0460934B04109200041092FA
:10103000FF03DD2331F081E090E090930004809382
:10104000FF0380911B04882349F08091FF03909156
:1010500000048260909300048093FF0380911A043F
:10106000882349F08091FF0390910004846090935D
:1010700000048093FF0380911904882349F0809134
:10108000FF03909100048860909300048093FF0315
:1010900080911D04882349F08091FF039091000402
:1010A0008061909300048093FF0380911C04882347
:1010B00049F08091FF0390910004806290930004B6
:1010C0008093FF0380911804882349F08091FF03E7
:1010D000909100048064909300048093FF038091BA
:1010E0001704882349F08091FF03909100048068E1
:1010F000909300048093FF038091FF03909100047C
:1011000090934E0480934D04109200041092FF03BC
:1011100080912804882331F021E030E030930004EE
:101120002093FF03882349F08091FF0390910004EE
:101130008260909300048093FF03809127048823AA
:1011400049F08091FF039091000484609093000423
:101150008093FF0380912604882349F08091FF0348
:10116000909100048860909300048093FF03809125
:101170002504882349F08091FF0390910004806149
:10118000909300048093FF0380912304882349F007
:101190008091FF03909100048062909300048093FB
:1011A000FF0380912204882349F08091FF039091EE
:1011B00000048064909300048093FF0380912404D2
:1011C000882349F08091FF039091000480689093F8
:1011D00000048093FF0380912104882349F08091CB
:1011E000FF03909100049064909300048093FF03A8
:1011F00080913C02811109C08091FF03909100040D
:101200009068909300048093FF03E9E4F4E08091F8
:10121000FF03909100049783868380915B029091F5
:101220005C02918780878091590290915A0293873E
:101230008287809157029091580295878487809188
:10124000550290915602978786878091530290911C
:101250005402918B808B8091510290915202938B1A
:10126000828B109202041092010410920304809168
:101270003A02882319F080E280930204EE2029F0DC
:1012800080910204806180930204FF2019F080E2C3
:1012900080930104DD2029F0809101048460809313
:1012A0000104CC2329F0809102048460809302041D
:1012B000002319F084E080930304112329F0809126
:1012C0000304826080930304809101048BB98091B0
:1012D000030485B9F894439903C08091020488B946
:1012E000789437CCCF92DF92EF92FF920F931F93B7
:1012F000CF938FEF860F873FA0F55E2D68017901B0
:10130000942F862F609384042CE73CE03093810473
:101310002093800427E83CE030937F0420937E04F0
:1013200028EC3CE0309383042093820420E93CE0E5
:1013300030937D0420937C0410927B0410927A04F5
:10134000052FA7019601692F0E94550CC82F811106
:101350000BC00E94C90D882331F081E080932F02D9
:1013600003C0C2E001C0C3E08C2FCF911F910F9149
:10137000FF90EF90DF90CF90089580912F02813001
:1013800049F4E0918004F0918104099510922F02B4
:1013900080E0089586E00895CF93DF931F92CDB744
:1013A000DEB780912F02811192C0CE0101960E947A
:1013B000D40D813009F08DC08981813019F08230DF
:1013C000D9F089C0E0917C04F0917D0445E754E0B8
:1013D00067E774E089E794E0099581117EC0809108
:1013E000790490918404891711F0811178C082E00A
:1013F0000E94CD0D80E076C0A0917704B091780472
:101400004C914093740481E08093730420E030E0B9
:1014100020C0F901EE0FFF1FE20FF31FE65EFD4F44
:1014200090819923C9F0491312C0F901EE0FFF1FF3
:101430002E0F3F1FF901E65EFD4F0180F281E02D86
:1014400065E774E0CD0109958093730405C02F5FB3
:101450003F4F27303105ECF280917904882309F45D
:1014600040C080917304882309F1E0917704F091E2
:10147000780421E030E03093760420937504909155
:10148000740490689083409177045091780420917F
:10149000750430917604B9016F5F7F4F70937604C5
:1014A00060937504FA01E20FF31F8083E0918204D8
:1014B000F091830440917504509176046091770413
:1014C0007091780480918404099580E00BC086E0D7
:1014D00009C087E007C087E005C080E003C080E066
:1014E00001C080E00F90DF91CF910895FC012FEFB4
:1014F0003FEF12C0DF011196E081E2278E2F90E0CE
:10150000FC01E859FE4FE491232F2E27FC01E859F6
:10151000FF4F3491BA01FD01AB0141505109672BD6
:1015200049F7832F90E0982F8827822B0895FB019D
:10153000208131812530310591F4FC0160E0718119
:101540002281622B6F5F7F4F21E041E050E00396E4
:101550000E94F703882329F00E94BB0D089583E0C1
:10156000089580E00895CF93DF93DB012D913C91A6
:101570002630310538F120E0EC0139814A81242BF5
:10158000F901319640E05B812C81422BAD819A01BB
:101590002150310928373105B8F4242F220FA21326
:1015A00015C0EB0121E0BF0106960E94F7038823D6
:1015B00019F00E94BB0D0BC085E090E099838883F1
:1015C00080E005C083E003C083E001C083E0DF91D9
:1015D000CF9108950F931F93CF93DF93DB012D914C
:1015E0003C9125303105E1F520E0FC01318142815B
:1015F000242BF9013196DC0114962C911497022FBB
:1016000010E0A801415051094D37510558F5EB0143
:101610001982188233E03C93488159814F5F5F4FB4
:1016200059834883220F11962C93288139812F5F8B
:101630003F4F3983288320E0A801BF0102960E9412
:10164000F703882319F00E94BB0D0DC0000F111F76
:1016500088819981080F191F1983088380E003C0CE
:1016600083E001C083E0DF91CF911F910F91089536
:10167000CF92DF92EF92FF920F931F93CF93DF935E
:10168000FC01DB018D919C910A9708F468C080E011
:1016900091812281822B8C010F5F1F4FB0E0CB2FF5
:1016A0008381D82F8481C82B80E095812681822B6D
:1016B000019640E057812085422BA1859E01215053
:1016C00031092D37310508F04CC04115510509F499
:1016D0004AC04A37510508F048C02A2F30E0DA01E5
:1016E000AA0FBB1FA217B30709F041C07B016F010E
:1016F00021E0BC01CF010A960E94F70381112AC0A4
:10170000D70111961C921E9287E1F60180838D917C
:101710009C911197019611969C938E938C2F880F14
:1017200081838D919C91119701968D939C9320E0DC
:10173000AE01B801C60102960E94F70381110AC0EA
:10174000CC0FDD1FD7012D913C9111972C0F3D1F20
:101750002D933C93882369F00E94BB0D0BC080E061
:1017600009C083E007C083E005C083E003C083E0D5
:1017700001C080E0DF91CF911F910F91FF90EF901A
:10178000DF90CF9008950F931F93CF93DF93DB01EA
:101790002D913C9125303105E1F520E0FC013181AE
:1017A0004281242B2F5F3F4F40E05381E4818A0127
:1017B0000E2BA801415051094C37510560F5EB0142
:1017C000FC011982188244E04083488159814F5FAF
:1017D0005F4F59834883402F440F4183488159818B
:1017E0004F5F5F4F59834883A801B90102960E9459
:1017F000D103882319F00E94BB0D0EC0A801440F2D
:10180000551F08811981400F511F5983488380E07B
:1018100003C083E001C083E0DF91CF911F910F915E
:101820000895CF93DF93E9012296C032D105F0F4F9
:101830008093870482E090E09093860480938504EF
:10184000662311F08FEF01C080E08093880421159A
:10185000310571F0BA01A90189E894E00E94711282
:10186000D0938604C093850480E003C084E001C067
:1018700080E0DF91CF9108950F931F93CF93DF9373
:101880008B01C0918504D0918604AE0167E874E0B5
:1018900001960E9471122196F801D183C08380E0E5
:1018A000DF91CF911F910F910895F894E2ECF0E051
:1018B000808186608083E0ECF0E0808182608083BC
:1018C0008FEC8093C400E1ECF0E080818061808344
:1018D00060E080E00E94E20D87B1886087B988B13E
:1018E000877F88B988B1877F88B988E290E00E94B5
:1018F000070E789480E00895F8941092AD0460E0AB
:1019000081E00E94E20D0E942A0E78940895F894D6
:1019100060E080E00E94E20D0E94470E78940895F6
:10192000EF92FF920F931F93CF93DF93F894209140
:10193000A7043091A80424303105F8F07A018B0116
:10194000EC016091A7047091A80483EB94E00E94DD
:10195000760A892BA1F48091B30488838091A7042F
:101960009091A8040397F7019183808384EB94E01E
:10197000F8019183808380E003C085E001C085E0A9
:101980007894DF91CF911F910F91FF90EF90089580
:10199000F8949091AD04913009F047C0282FCB0105
:1019A00001979093AC048093AB0461E070E0709376
:1019B000AA046093A904FC0120832091A90430911A
:1019C000AA04420F531F5093AA044093A9046091A4
:1019D000A9047091AA040E94760A492F2091A904B3
:1019E0003091AA04B9016F5F7F4F7093AA0460938E
:1019F000A904F901ED54FB4F80838091A9049091D3
:101A0000AA049C012F5F3F4F3093AA042093A9049E
:101A1000FC01ED54FB4F408381E08093AE0461E014
:101A200080E00E94E20D80E001C085E07894089596
:101A30009091C6008091AD04813061F028F0823031
:101A400011F1833021F03CC00E942A0E39C00E945F
:101A50002A0E36C01092A8041092A7042091A70461
:101A60003091A804A9014F5F5F4F5093A8044093A1
:101A7000A704F901ED54FB4F908382E08093AD04FD
:101A80000E942A0E1DC02091A7043091A8042F3F68
:101A9000310509F080F42091A7043091A804A90130
:101AA0004F5F5F4F5093A8044093A704F901ED5492
:101AB000FB4F908303C083E08093AD040E942A0E05
:101AC00080E00895CF938091AE04882319F081308F
:101AD00039F032C060E081E00E94E20DC0E02DC02C
:101AE0008091A9049091AA04892BD9F0E091AB04CC
:101AF000F091AC0480810E94030E8091AB04909120
:101B0000AC0401969093AC048093AB048091A9043B
:101B10009091AA0401979093AA048093A904C0E02D
:101B20000CC083E00E94CD0DC82F60E081E00E94D0
:101B3000E20D1092AE0401C0C0E08C2FCF91089549
:101B4000CF938091AD04882319F0823031F00AC020
:101B500080E00E94CD0DC82F06C081E00E94CD0D0F
:101B6000C82F01C0C0E00E94470E81E08093AD0401
:101B70008C2FCF910895813051F018F0873019F0F3
:101B800004C080E0089586E0089584E0089582E02E
:101B900008951092AF0481E0089591E09093AF040E
:101BA0008093B00481E00895FC019091AF049923E3
:101BB00039F08091B00480831092AF0481E00895E1
:101BC00080E00895E1ECF0E09081986490838823B0
:101BD00021F080818069808305C0E1ECF0E08081A4
:101BE0008F768083662349F0E1ECF0E080818862A3
:101BF000808388B1886088B90895E1ECF0E0808145
:101C00008F7D808308958093C60081E008959C01B4
:101C1000A9E0BDE30E94621220E23EE440E050E011
:101C20000E9440123093B2042093B10410928000BD
:101C3000E1E8F0E010821092820080818A7F808348
:101C4000EFE6F0E080818D7F808386B3826086BB83
:101C500081E0089510928500109284008091B10473
:101C60009091B204892B69F0EFE6F0E08081826008
:101C700080838091B1049091B20490938900809305
:101C80008800E1E8F0E08081856080830895E1E8E4
:101C9000F0E080818A7F8083EFE6F0E080818D7FB5
:101CA000808386B3826086BB0895359B0EC0809189
:101CB00016048150809316048B3F9CF48BEF809325
:101CC000160481E0809328040CC0809116048F5F75
:101CD0008093160486302CF085E0809316041092D1
:101CE0002804349B0EC08091150481508093150404
:101CF0008B3F9CF48BEF8093150481E08093270445
:101D00000CC0809115048F5F8093150486302CF0F1
:101D100085E080931504109227044D9B0EC080919E
:101D200014048150809314048B3F9CF48BEF8093B8
:101D3000140481E0809326040CC0809114048F5F0A
:101D40008093140486302CF085E080931404109264
:101D500026044A9B0EC08091130481508093130483
:101D60008B3F9CF48BEF8093130481E080932504D8
:101D70000CC0809113048F5F8093130486302CF085
:101D800085E08093130410922504329B0EC080914D
:101D900012048150809312048B3F9CF48BEF80934C
:101DA000120481E0809324040CC0809112048F5FA0
:101DB0008093120486302CF085E0809312041092F8
:101DC00024041A9B0EC08091110481508093110449
:101DD0008B3F9CF48BEF8093110481E0809323046C
:101DE0000CC0809111048F5F8093110486302CF019
:101DF00085E08093110410922304199B0EC08091FA
:101E000010048150809310048B3F9CF48BEF8093DF
:101E1000100481E0809322040CC0809110048F5F35
:101E20008093100486302CF085E08093100410928B
:101E30002204319B0EC080910F04815080930F04C7
:101E40008B3F9CF48BEF80930F0481E080931E0402
:101E50000CC080910F048F5F80930F0486302CF0AC
:101E600085E080930F0410921E041C9B0EC080918D
:101E70000E04815080930E048B3F9CF48BEF809373
:101E80000E0481E080931D040CC080910E048F5FCE
:101E900080930E0486302CF085E080930E0410921F
:101EA0001D041D9B0EC080910D04815080930D0474
:101EB0008B3F9CF48BEF80930D0481E080931C0496
:101EC0000CC080910D048F5F80930D0486302CF040
:101ED00085E080930D0410921C044C9B0EC08091F1
:101EE0000C04815080930C048B3F9CF48BEF809307
:101EF0000C0481E080931B040CC080910C048F5F64
:101F000080930C0486302CF085E080930C041092B2
:101F10001B044B9B0EC080910B04815080930B04DB
:101F20008B3F9CF48BEF80930B0481E080931A0429
:101F30000CC080910B048F5F80930B0486302CF0D3
:101F400085E080930B0410921A04189B0EC08091B8
:101F50000A04815080930A048B3F9CF48BEF80939A
:101F60000A0481E0809319040CC080910A048F5FF9
:101F700080930A0486302CF085E080930A04109246
:101F800019044F9B0EC0809109048150809309046D
:101F90008B3F9CF48BEF8093090481E080931804BD
:101FA0000CC0809109048F5F8093090486302CF067
:101FB00085E080930904109218044E9B0EC0809116
:101FC00008048150809308048B3F9CF48BEF80932E
:101FD000080481E0809317040895809108048F5FBE
:101FE0008093080486302CF085E0809308041092DA
:101FF000170408955058BB27AA270E9412100C946A
:102000005C110E944E1138F00E94551120F039F4F5
:102010009F3F19F426F40C944B110EF4E095E7FB66
:102020000C944511E92F0E946D1158F3BA176207FD
:1020300073078407950720F079F4A6F50C948F11A7
:102040000EF4E0950B2EBA2FA02D0B01B9019001D3
:102050000C01CA01A0011124FF27591B99F0593F17
:1020600050F4503E68F11A16F040A22F232F342F5F
:102070004427585FF3CF469537952795A795F040AD
:102080005395C9F77EF41F16BA0B620B730B840BC2
:10209000BAF09150A1F0FF0FBB1F661F771F881F7A
:1020A000C2F70EC0BA0F621F731F841F48F48795D2
:1020B00077956795B795F7959E3F08F0B0CF9395C4
:1020C000880F08F09927EE0F9795879508950E943D
:1020D0007B100C945C110E94551158F00E944E1117
:1020E00040F029F45F3F29F00C94451151110C94F4
:1020F00090110C944B110E946D1168F39923B1F368
:10210000552391F3951B550BBB27AA27621773071D
:10211000840738F09F5F5F4F220F331F441FAA1FB1
:10212000A9F335D00E2E3AF0E0E832D0915050406D
:10213000E695001CCAF72BD0FE2F29D0660F771F1B
:10214000881FBB1F261737074807AB07B0E809F001
:10215000BB0B802DBF01FF2793585F4F3AF09E3F86
:10216000510578F00C9445110C9490115F3FE4F305
:10217000983ED4F3869577956795B795F7959F5FC9
:10218000C9F7880F911D9695879597F90895E1E015
:10219000660F771F881FBB1F621773078407BA0774
:1021A00020F0621B730B840BBA0BEE1F88F7E095CF
:1021B00008950E94751188F09F5798F0B92F9927BC
:1021C000B751B0F0E1F0660F771F881F991F1AF022
:1021D000BA95C9F714C0B13091F00E948F11B1E0E7
:1021E00008950C948F11672F782F8827B85F39F0E6
:1021F000B93FCCF3869577956795B395D9F73EF4BB
:1022000090958095709561957F4F8F4F9F4F089562
:10221000E89409C097FB3EF4909580957095619580
:102220007F4F8F4F9F4F9923A9F0F92F96E9BB2736
:102230009395F695879577956795B795F111F8CFB2
:10224000FAF4BB0F11F460FF1BC06F5F7F4F8F4F1D
:102250009F4F16C0882311F096E911C0772321F013
:102260009EE8872F762F05C0662371F096E8862FAB
:1022700070E060E02AF09A95660F771F881FDAF702
:10228000880F9695879597F9089597F99F6780E845
:1022900070E060E008959FEF80EC089500240A94B8
:1022A0001616170618060906089500240A94121631
:1022B0001306140605060895092E0394000C11F464
:1022C000882352F0BB0F40F4BF2B11F460FF04C011
:1022D0006F5F7F4F8F4F9F4F089557FD9058440F6A
:1022E000551F59F05F3F71F04795880F97FB991F75
:1022F00061F09F3F79F08795089512161306140632
:10230000551FF2CF4695F1DF08C0161617061806BE
:10231000991FF1CF86957105610508940895E89499
:10232000BB2766277727CB0197F908950E940812EB
:1023300008F48FEF08950E94AE110C945C110E9476
:102340004E1138F00E94551120F0952311F00C9495
:1023500045110C944B1111240C9490110E946D1195
:1023600070F3959FC1F3950F50E0551F629FF001E8
:10237000729FBB27F00DB11D639FAA27F00DB11D01
:10238000AA1F649F6627B00DA11D661F829F22278A
:10239000B00DA11D621F739FB00DA11D621F839F11
:1023A000A00D611D221F749F3327A00D611D231FE7
:1023B000849F600D211D822F762F6A2F11249F5735
:1023C00050409AF0F1F088234AF0EE0FFF1FBB1F38
:1023D000661F771F881F91505040A9F79E3F5105F7
:1023E00080F00C9445110C9490115F3FE4F3983EFB
:1023F000D4F3869577956795B795F795E7959F5FA1
:10240000C1F7FE2B880F911D9695879597F9089532
:10241000990F0008550FAA0BE0E8FEEF16161706F5
:10242000E807F907C0F012161306E407F50798F05D
:10243000621B730B840B950B39F40A2661F0232B76
:10244000242B252B21F408950A2609F4A140A695F2
:102450008FEF811D811D0895AA1BBB1B51E107C091
:10246000AA1FBB1FA617B70710F0A61BB70B881F24
:10247000991F5A95A9F780959095BC01CD010895B3
:10248000A1E21A2EAA1BBB1BFD010DC0AA1FBB1F78
:10249000EE1FFF1FA217B307E407F50720F0A21BEA
:1024A000B30BE40BF50B661F771F881F991F1A9457
:1024B00069F760957095809590959B01AC01BD0181
:1024C000CF010895A29FB001B39FC001A39F700DDB
:1024D000811D1124911DB29F700D811D1124911D2C
:1024E0000895FB01DC0102C001900D924150504063
:1024F000D8F70895A8E1B0E042E050E00C948712CC
:102500000E949512272F0C949612DC01CB01FC013E
:10251000F999FECF06C0F2BDE1BDF89A319600B43C
:102520000D9241505040B8F70895262FF999FECFEB
:102530001FBA92BD81BD20BD0FB6F894FA9AF99AE0
:0A2540000FBE01960895F894FFCF36
:10254A0022D8AFCCECC1CCB746AE50A5D59CD89416
:10255A00528D3A868A7F317934738E6D38682E634C
:10256A00655EE0599A558F51BC4D184AA646634399
:10257A004B405E3D943AEF376D350C33CA30A32E8B
:10258A00982CA82AD02810276325CC234822D720A4
:10259A00791F291EE91CB91B971A83197A187F1704
:1025AA008E16A915CF14FD1335137612BF1111110A
:1025BA006910C90F310F9E0E130E8C0D0B0D900C66
:1025CA001A0CAA0B3D0BD50A720A130AB80960093C
:1025DA000B09BB086D082308DB0796075407140785
:1025EA00D8069D0665062F06FB05C90598056A05E6
:1025FA003E051305EA04C1049B0476045204300420
:10260A000E04EE03D003B203950379035F03450377
:10261A002C031403FD02E602D102BC02A8029402B2
:10262A0081026F025D024C023C022C021C020D0266
:10263A00FF01F101E301D601C901BD01B101A50103
:10264A009A018F0185017B01710167015E015501C4
:10265A004D0144013C0134012C01113C0C04C30B13
:10266A0003EA0A10B30A06970A17380B0000000299
:04267A00AABBDD001A
:00000001FF
