S01E00006D623438355F54545F6D6567613332385F76616E6E612E7372656386
S11300000C9434010C9451010C9451010C94510141
S11300100C9451010C9451010C9451010C94510114
S11300200C9451010C9479030C9451010C945503D4
S11300300C9451010C9451010C9451010C945101F4
S11300400C9451010C9451010C9431030C940D0344
S11300500C94FE020C9451010C9451010C94510126
S11300600C9451010C94510100C0C101C30302C29C
S1130070C60607C705C5C404CC0C0DCD0FCFCE0EE4
S11300800ACACB0BC90908C8D81819D91BDBDA1A54
S11300901EDEDF1FDD1D1CDC14D4D515D71716D6C4
S11300A0D21213D311D1D010F03031F133F3F23234
S11300B036F6F737F53534F43CFCFD3DFF3F3EFEA4
S11300C0FA3A3BFB39F9F83828E8E929EB2B2AEA14
S11300D0EE2E2FEF2DEDEC2CE42425E527E7E62684
S11300E022E2E323E12120E0A06061A163A3A262F4
S11300F066A6A767A56564A46CACAD6DAF6F6EAE64
S1130100AA6A6BAB69A9A86878B8B979BB7B7ABAD3
S1130110BE7E7FBF7DBDBC7CB47475B577B7B67643
S113012072B2B373B17170B05090915193535292B3
S113013096565797559594549C5C5D9D5F9F9E5E23
S11301405A9A9B5B99595898884849894B8B8A4A93
S11301504E8E8F4F8D4D4C8C448485458747468603
S1130160824243834181804000C1814001C080417B
S113017001C0804100C1814001C0804100C1814073
S113018000C1814001C0804101C0804100C1814063
S113019000C1814001C0804100C1814001C0804153
S11301A001C0804100C1814001C0804100C1814043
S11301B000C1814001C0804100C1814001C0804133
S11301C001C0804100C1814000C1814001C0804123
S11301D001C0804100C1814001C0804100C1814013
S11301E000C1814001C0804101C0804100C1814003
S11301F000C1814001C0804100C1814001C08041F3
S113020001C0804100C1814000C1814001C08041E2
S113021001C0804100C1814001C0804100C18140D2
S113022000C1814001C0804100C1814001C08041C2
S113023001C0804100C1814001C0804100C18140B2
S113024000C1814001C0804101C0804100C18140A2
S113025000C1814001C0804100C1814001C0804192
S113026001C0804100C1814011241FBECFEFD8E0FE
S1130270DEBFCDBF12E0A0E0B1E0ECEBF3E202C0E0
S113028005900D92A433B107D9F724E0A4E3B2E0BA
S113029001C01D92AE33B207E1F70E94D0040C9462
S11302A0DC110C940000ECE7F0E080818F7B80830C
S11302B080818F77808380818F7D80838081877F19
S11302C0808380818B7F808380818D7F8083808108
S11302D08E7F8083EAE7F0E0808181608083808183
S11302E0826080838081846080838081877F808333
S11302F08081806280838081806480838081806843
S11303008083EBE7F0E080818E7F808380818D7F26
S1130310808380818B7F808380818F7B808308951D
S1130320ECE7F0E080818064808380818F77808334
S113033080818F7D80838081877F808380818B7F94
S1130340808380818D7F808380818E7F8083EAE7B4
S1130350F0E08081816080838081826080838081FD
S1130360846080838081877F8083808180628083B2
S1130370808180648083808180688083EBE7F0E003
S113038080818E7F808380818D7F808380818B7F3D
S1130390808380818F7B808308954F925F926F92D8
S11303A07F928F929F92AF92BF92CF92DF92EF9201
S11303B0FF920F931F93CF93DF93CDB7DEB72797A9
S11303C00FB6F894DEBF0FBECDBF2B013C0149012F
S11303D05A01E982FA820B831C8380917800209170
S11303E0790030E0322F2227282B3F832E83B90156
S11303F080E090E00E9441106B017C018E819F811E
S11304008D5A92408C33914008F048C029813A813A
S11304104B815C81C501B4010E94F8109B01AC01C1
S1130420C701B6010E94F81069837A838B839C8389
S113043020E030E040E854E4C301B2010E94F81027
S11304402B013C01A5019401C701B6010E94F810DB
S11304509B01AC01C301B2010E942E0F9B01AC01B0
S113046069817A818B819C810E94A00F20E030E019
S11304704AE754E40E942E0F20E030E040E251E4C9
S11304800E94F81021E230EB42E750E40E94A00FF2
S11304900E941210CB018C599F4F02C08CE697E04A
S11304A027960FB6F894DEBF0FBECDBFDF91CF9174
S11304B01F910F91FF90EF90DF90CF90BF90AF907E
S11304C09F908F907F906F905F904F9008958F9240
S11304D09F92AF92BF92CF92DF92EF92FF920F93CF
S11304E01F93CF93DF936B017C0180917800C091BF
S11304F07900D0E0DC2FCC27C82BBE0180E090E04F
S11305000E9441104B015C01C258D109CD35D34042
S113051008F065C0A7019601C501B4010E94F81056
S11305206B017C01A501940160E070E080E894E433
S11305300E942E0F9B01AC01C701B6010E94A00FBF
S11305400E941210EB0121E030E080E090E02D38B1
S113055031050CF046C0F901EE0FFF1FE050FF4FCC
S1130560A081B181CA17DB0768F4C901880F991FFC
S1130570880F991F880F991FB901660F771F860F7F
S1130580971F2AC0215031098901000F111FC8018A
S113059080509F4FFC0160817181AB014C1B5D0B4E
S11305A0CA01880F991F440F551F440F551F440F4C
S11305B0551F840F951F6A1B7B0B0E946511220F28
S11305C0331F220F331F220F331F200F311FCB0184
S11305D0820F931F2EE830E02F5F3F4FB8CF8CE699
S11305E097E0DF91CF911F910F91FF90EF90DF90F3
S11305F0CF90BF90AF909F908F9008951F920F92CD
S11306000FB60F9211248F9388B1877F88B98F9189
S11306100F900FBE0F901F9018951F920F920FB658
S11306200F9211242F933F934F935F936F937F9374
S11306308F939F93AF93BF93EF93FF930E94960C76
S1130640FF91EF91BF91AF919F918F917F916F91A6
S11306505F914F913F912F910F900FBE0F901F907C
S113066018951F920F920FB60F9211242F933F9358
S11306704F935F936F937F938F939F93AF93BF93A6
S1130680EF93FF930E944C0CFF91EF91BF91AF91B8
S11306909F918F917F916F915F914F913F912F9196
S11306A00F900FBE0F901F9018951F920F920FB6C8
S11306B00F9211242F933F934F935F936F937F93E4
S11306C08F939F93AF93BF93EF93FF930E94D40CA8
S11306D0FF91EF91BF91AF919F918F917F916F9116
S11306E05F914F913F912F910F900FBE0F901F90EC
S11306F018951F920F920FB60F9211248F938FEFBC
S1130700809394028F910F900FBE0F901F901895B5
S11307101092B200E1EBF0E0808187608083E0E733
S1130720F0E08081816080830895DC01611522E01E
S11307307207D8F0CB01840F951F81319240B8F431
S1130740725041155105A9F0FB01EE0FFF1FEC5249
S1130750FD4F81818C93808111968C9311976F5FEB
S11307607F4F415051091296ECCF81E0089581E00A
S1130770089580E00895FC01603132E07307F0F0E1
S1130780CB01840F951F81329240C0F4211116C011
S1130790CB018051924041155105A1F0DC01AA0F13
S11307A0BB1FAC54BD4F11963C91119730833C91C3
S11307B031830196415051093296EDCF222321F025
S11307C080E003C080E001C081E0603192E07907FD
S11307D020F1DA01A60FB71FA132B240F0F42130A4
S11307E0E1F46051724041155105D1F0808190E0EF
S11307F0982F8827DB01AA0FBB1FAC54BD4F11965D
S11308009C938E932181820F911D8D939C9332969C
S11308106F5F7F4F41505109E6CF213021F402C070
S113082080E0089581E00895CF93DF9300D0CDB7A1
S1130830DEB79A83898380915402909155028C3D4E
S11308402FEF920778F069817A81605F7F4F7A8316
S1130850698388E592E00E94B911109255021092C2
S1130860540205C0019690935502809354026091FE
S1130870540270915502CE0105960E94B9118091DF
S113088047028C3350F110924702809152029091AA
S1130890530201969093530280935202CC9768F0CE
S11308A01092530210925202809150029091510280
S11308B0019690935102809350026091520270917C
S11308C05302CE0109960E94B911609150027091B1
S11308D05102CE010D960E94B911809146028C33CB
S11308E050F11092460280914E0290914F0201966F
S11308F090934F0280934E02CC9768F010924F026F
S113090010924E0280914C0290914D020196909368
S11309104D0280934C0260914E0270914F02CE01C1
S113092009960E94B91160914C0270914D02CE015A
S11309300D960E94B911809145028C3350F11092AA
S1130940450280914A0290914B02019690934B028A
S113095080934A02CC9768F010924B0210924A029C
S113096080914802909149020196909349028093A4
S1130970480260914A0270914B02CE0109960E948E
S1130980B9116091480270914902CE010D960E94FE
S1130990B91189819A810F900F90DF91CF910895B9
S11309A088E893E19093FD028093FC0284EC99E043
S11309B09093FB028093FA0280ED97E09093F90202
S11309C08093F80288E592E00E94B3119093570255
S11309D0809356028AE592E00E94B31190935502E7
S11309E0809354028EE592E00E94B31190935302D7
S11309F08093520282E692E00E94B31190935102D6
S1130A008093500286E692E00E94B31190934F02C5
S1130A1080934E028AE692E00E94B31190934D02B5
S1130A2080934C028EE692E00E94B31190934B02A5
S1130A3080934A0282E792E00E94B31190934902A4
S1130A408093480214B88FEF85B917B888B91AB8DB
S1130A508BB987B1886087B988B1877F88B987B136
S1130A60806287B987B1806187B98AB180628AB9A7
S1130A708AB184608AB987B1846087B984B184609B
S1130A8084B984B1826084B988B18E7F88B90E94A8
S1130A90880378940E94900180E180939302F894F3
S1130AA0E12C00E815E220E030E040E060919302A0
S1130AB080E00E94A6088093920223E030E040E3A5
S1130AC052E061E084E30E94450B809392027894A3
S1130AD00E94F10880939202A8959EE088E10FB6E7
S1130AE0F894A895809360000FBE909360000E94D4
S1130AF090010E94000981111AC1A895E4EBF2E06B
S1130B00828193819093F7028093F6028481958188
S1130B109093F5028093F402C085D185D093FD02B1
S1130B20C093FC02028513851093FB020093FA0222
S1130B30648575857093F9026093F80286819781C4
S1130B4021E080FF20E02093440221E081FF20E0A7
S1130B502093430221E082FF20E02093420221E01F
S1130B6083FF20E02093410221E084FF20E02093D2
S1130B70400221E085FF20E020933F0221E086FF30
S1130B8020E020933E0221E087FF20E020933D02F5
S1130B9031E090FF30E030933C02992324F481E06B
S1130BA08093AC0202C01092AC0280913B022817E1
S1130BB041F0222319F00E945301B5C00E94900114
S1130BC0B2C0222391F180E090E00E9441106B01B9
S1130BD07C01B80180E090E00E9441104B015C016F
S1130BE0BE0180E090E00E94411087017601A501DA
S1130BF094010E94CD01BC0180E090E00E9441106C
S1130C0020E030E040E251E40E94A00F20E030E018
S1130C1040E251E40E942E0F609384027093850297
S1130C2080938602909387021FC080E090E00E9428
S1130C3041100E946702BC0180E090E00E944110D4
S1130C4020E030E040E251E40E94A00F20E030E0D8
S1130C5040E251E40E942E0F609384027093850257
S1130C60809386029093870280915B02E82FF0E0E4
S1130C70EE0FFF1FEE0FFF1FE45AFD4F4091840259
S1130C80509185026091860270918702408351835E
S1130C90628373838F5F80935B028A3010F01092BB
S1130CA05B02109288021092890210928A021092BA
S1130CB08B02C0E0D0E0CA30D105FCF4FE01EE0F97
S1130CC0FF1FEE0FFF1FE45AFD4F60817181828187
S1130CD09381209188023091890240918A02509137
S1130CE08B020E942F0F6093880270938902809375
S1130CF08A0290938B022196DECF20E030E040E21E
S1130D0051E4609188027091890280918A029091E5
S1130D108B020E94A00F60938802709389028093D3
S1130D208A0290938B0280913D0280933B028091D2
S1130D309402882309F455C00E94890D10929402EC
S1130D40809191028F5F809391028D33F0F1109224
S1130D50910280913902882329F0809147028F5FA4
S1130D608093470280913A02882329F080914602B9
S1130D708F5F8093460280913802882329F0809106
S1130D8045028F5F8093450291E0809147028C3346
S1130D9008F490E081E0209146022C3308F480E0CE
S1130DA0892B91E0209145022C3308F490E08111C5
S1130DB002C0992351F080915602909157020E94EB
S1130DC01404909357028093560280913C02882326
S1130DD021F081E080935A0204C08091AB02809399
S1130DE05A02C0908802D0908902E0908A02F09062
S1130DF08B026091F6027091F70280E090E00E940D
S1130E004110D1E0A70196010E94F31018160CF0CE
S1130E10D0E0C0915A02DD2339F0CC2329F080912F
S1130E20440280933A0202C010923A026091F402A2
S1130E307091F50280E090E00E9441109B01AC01AA
S1130E40D1E0C701B6010E949B0F88230CF0D0E0CB
S1130E50CC2339F0DD2329F08091430280933902B9
S1130E6002C010923902A0904202A0923802B090BF
S1130E704102B09237020091400200933602109171
S1130E803F0210933502D0913E02D093340220E009
S1130E9030E040E251E4C701B6010E942F0F20E088
S1130EA030E040E251E40E94F8100E941210709366
S1130EB0D7026093D60210928D0210928C02CC233A
S1130EC031F081E090E090938D0280938C028091C8
S1130ED0AA02882349F080918C0290918D0282604D
S1130EE090938D0280938C028091A902882349F00B
S1130EF080918C0290918D02846090938D028093F6
S1130F008C028091A802882349F080918C029091F0
S1130F108D02886090938D0280938C028091A70249
S1130F20882349F080918C0290918D028061909386
S1130F308D0280938C028091A602882349F08091CF
S1130F408C0290918D02806290938D0280938C022A
S1130F508091A502882349F080918C0290918D02A2
S1130F60806490938D0280938C028091A4028823E4
S1130F7049F080918C0290918D02806890938D024B
S1130F8080938C0280918C0290918D029093D9026F
S1130F908093D80210928D0210928C028091B30239
S1130FA0882331F081E090E090938D0280938C024D
S1130FB08091B202882349F080918C0290918D0235
S1130FC0826090938D0280938C028091B102882379
S1130FD049F080918C0290918D02846090938D02EF
S1130FE080938C028091B002882349F080918C0216
S1130FF090918D02886090938D0280938C028091F1
S1131000AF02882349F080918C0290918D02806117
S113101090938D0280938C028091AE02882349F0D4
S113102080918C0290918D02806290938D028093C6
S11310308C028091AD02882349F080918C029091BA
S11310408D02806490938D0280938C028091AC0217
S1131050811109C080918C0290918D0290689093C7
S11310608D0280938C02E4EDF2E080918C029091E9
S11310708D029783868380915202909153029187C7
S1131080808780915002909151029387828780914A
S11310904E0290914F029587848780914C029091E3
S11310A04D029787868780914A0290914B02918BDB
S11310B0808B8091480290914902938B828B86B1F8
S11310C090E0958B848B10928F0210928E02109276
S11310D0900280913A02882319F080E280938F0273
S11310E080913902882329F080918F028061809356
S11310F08F02AA2019F080E280938E02BB2029F08F
S113110080918E02846080938E02002329F0809166
S11311108F02846080938F02112319F084E08093FE
S11311209002DD2329F080919002826080939002E6
S113113080918E028BB98091900285B9F89443997D
S113114003C080918F0288B97894D3CCCF92DF9278
S1131150EF92FF920F931F93CF938FEF860F873FEA
S1131160A0F55E2D68017901942F862F60930F03FB
S113117020EB3BE030930C0320930B032BEB3BE081
S113118030930A03209309032CEF3BE030930E03C2
S113119020930D0324EC3BE03093080320930703D2
S11311A01092060310920503052FA7019601692FDB
S11311B00E94890BC82F81110BC00E94FD0C88234B
S11311C031F081E080932F0203C0C2E001C0C3E08C
S11311D08C2FCF911F910F91FF90EF90DF90CF90C4
S11311E0089580912F02813049F4E0910B03F0912E
S11311F00C03099510922F0280E0089586E008956B
S1131200CF93DF931F92CDB7DEB780912F02811168
S113121092C0CE0101960E94080D813009F08DC064
S11312208981813019F08230D9F089C0E0910703B7
S1131230F091080340E053E062E073E084E093E05F
S1131240099581117EC08091040390910F03891741
S113125011F0811178C082E00E94010D80E076C017
S1131260A0910203B09103034C914093FF0281E0EB
S11312708093FE0220E030E020C0F901EE0FFF1F52
S1131280E20FF31FE65EFD4F90819923C9F04913E5
S113129012C0F901EE0FFF1F2E0F3F1FF901E65E8A
S11312A0FD4F0180F281E02D60E073E0CD010995EE
S11312B08093FE0205C02F5F3F4F27303105ECF2CB
S11312C080910403882309F440C08091FE0288239E
S11312D009F1E0910203F091030321E030E030933F
S11312E00103209300039091FF0290689083409142
S11312F00203509103032091000330910103B901CB
S11313006F5F7F4F7093010360930003FA01E20F54
S1131310F31F8083E0910D03F0910E0340910003CD
S113132050910103609102037091030380910F03B4
S1131330099580E00BC086E009C087E007C087E01C
S113134005C080E003C080E001C080E00F90DF9121
S1131350CF910895FC012FEF3FEF12C0DF011196EA
S1131360E081E2278E2F90E0FC01E859FE4FE491E2
S1131370232F2E27FC01E859FF4F3491BA01FD01B8
S1131380AB0141505109672B49F7832F90E0982F07
S11313908827822B0895FB01208131812530310576
S11313A091F4FC0160E071812281622B6F5F7F4FB9
S11313B021E041E050E003960E94BB03882329F01A
S11313C00E94EF0C089583E0089580E00895CF9380
S11313D0DF93DB012D913C912630310538F120E07B
S11313E0EC0139814A81242BF901319640E05B817B
S11313F02C81422BAD819A012150310928373105C6
S1131400B8F4242F220FA21315C0EB0121E0BF0171
S113141006960E94BB03882319F00E94EF0C0BC0B0
S113142085E090E09983888380E005C083E003C071
S113143083E001C083E0DF91CF9108950F931F9360
S1131440CF93DF93DB012D913C9125303105E1F5FC
S113145020E0FC0131814281242BF9013196DC0129
S113146014962C911497022F10E0A80141505109B1
S11314704D37510558F5EB011982188233E03C933E
S1131480488159814F5F5F4F59834883220F1196DA
S11314902C93288139812F5F3F4F3983288320E0A3
S11314A0A801BF0102960E94BB03882319F00E9481
S11314B0EF0C0DC0000F111F88819981080F191FAF
S11314C01983088380E003C083E001C083E0DF91D7
S11314D0CF911F910F910895CF92DF92EF92FF92D7
S11314E00F931F93CF93DF93FC01DB018D919C91AC
S11314F00A9708F468C080E091812281822B8C01D4
S11315000F5F1F4FB0E0CB2F8381D82F8481C82B6E
S113151080E095812681822B019640E057812085C9
S1131520422BA1859E01215031092D37310508F048
S11315304CC04115510509F44AC04A37510508F019
S113154048C02A2F30E0DA01AA0FBB1FA217B30745
S113155009F041C07B016F0121E0BC01CF010A9673
S11315600E94BB0381112AC0D70111961C921E92BE
S113157087E1F60180838D919C91119701961196D4
S11315809C938E938C2F880F81838D919C911197BE
S113159001968D939C9320E0AE01B801C60102969A
S11315A00E94BB0381110AC0CC0FDD1FD7012D910E
S11315B03C9111972C0F3D1F2D933C93882369F088
S11315C00E94EF0C0BC080E009C083E007C083E0F9
S11315D005C083E003C083E001C080E0DF91CF91C8
S11315E01F910F91FF90EF90DF90CF9008950F938C
S11315F01F93CF93DF93DB012D913C91253031056F
S1131600E1F520E0FC0131814281242B2F5F3F4F23
S113161040E05381E4818A010E2BA8014150510915
S11316204C37510560F5EB01FC011982188244E046
S11316304083488159814F5F5F4F59834883402FCE
S1131640440F4183488159814F5F5F4F59834883D9
S1131650A801B90102960E949503882319F00E94FB
S1131660EF0C0EC0A801440F551F08811981400FCB
S1131670511F5983488380E003C083E001C083E0A5
S1131680DF91CF911F910F910895CF93DF93E901DB
S11316902296C032D105F0F48093120382E090E0E8
S11316A09093110380931003662311F08FEF01C010
S11316B080E0809313032115310571F0BA01A9016B
S11316C084E193E00E94AA11D0931103C093100304
S11316D080E003C084E001C080E0DF91CF910895F1
S11316E00F931F93CF93DF938B01C0911003D0917D
S11316F01103AE0162E173E001960E94AA112196E2
S1131700F801D183C08380E0DF91CF911F910F91C5
S11317100895F894E2ECF0E0808186608083E0EC48
S1131720F0E08081826080838FEC8093C400E1ECE0
S1131730F0E080818061808360E080E00E94160D8B
S113174087B1886087B988B1877F88B988B1877F76
S113175088B988E290E00E943B0D789480E0089577
S1131760F8941092380360E081E00E94160D0E9404
S11317705E0D78940895F89460E080E00E94160D60
S11317800E947B0D78940895EF92FF920F931F931C
S1131790CF93DF93F89420913203309133032430B4
S11317A03105F8F07A018B01EC01609132037091FC
S11317B033038EE393E00E94AA09892BA1F480915C
S11317C03E03888380913203909133030397F7019A
S11317D0918380838FE393E0F8019183808380E099
S11317E003C085E001C085E07894DF91CF911F911B
S11317F00F91FF90EF900895F894909138039130F1
S113180009F047C0282FCB010197909337038093A9
S1131810360361E070E07093350360933403FC0198
S113182020832091340330913503420F531F50938A
S113183035034093340360913403709135030E945F
S1131840AA09492F2091340330913503B9016F5F00
S11318507F4F7093350360933403F901E25CFC4FCE
S1131860808380913403909135039C012F5F3F4F17
S11318703093350320933403FC01E25CFC4F408336
S113188081E08093390361E080E00E94160D80E0DE
S113189001C085E0789408959091C6008091380342
S11318A0813061F028F0823011F1833021F03CC0A6
S11318B00E945E0D39C00E945E0D36C01092330343
S11318C0109232032091320330913303A9014F5F08
S11318D05F4F5093330340933203F901E25CFC4FB2
S11318E0908382E0809338030E945E0D1DC0209196
S11318F03203309133032F3F310509F080F42091F6
S1131900320330913303A9014F5F5F4F5093330388
S113191040933203F901E25CFC4F908303C083E0FF
S1131920809338030E945E0D80E00895CF938091E8
S11319303903882319F0813039F032C060E081E046
S11319400E94160DC0E02DC08091340390913503A0
S1131950892BD9F0E0913603F091370380810E94FE
S1131960370D809136039091370301969093370396
S113197080933603809134039091350301979093BB
S1131980350380933403C0E00CC083E00E94010D52
S1131990C82F60E081E00E94160D1092390301C047
S11319A0C0E08C2FCF910895CF9380913803882382
S11319B019F0823031F00AC080E00E94010DC82F76
S11319C006C081E00E94010DC82F01C0C0E00E9442
S11319D07B0D81E0809338038C2FCF910895813063
S11319E051F018F0873019F004C080E0089586E0C3
S11319F0089584E0089582E0089510923A0381E006
S1131A00089591E090933A0380933B0381E0089515
S1131A10FC0190913A03992339F080913B03808330
S1131A2010923A0381E0089580E00895E1ECF0E03B
S1131A30908198649083882321F0808180698083D9
S1131A4005C0E1ECF0E080818F768083662349F065
S1131A50E1ECF0E080818862808388B1886088B995
S1131A600895E1ECF0E080818F7D80830895809378
S1131A70C60081E008959C01A9E0BDE30E949B118A
S1131A8020E23EE440E050E00E94791130933D03AF
S1131A9020933C0310928000E1E8F0E01082109261
S1131AA0820080818A7F8083EFE6F0E080818D7FF1
S1131AB0808386B3826086BB81E00895109285009E
S1131AC01092840080913C0390913D03892B69F02E
S1131AD0EFE6F0E080818260808380913C03909106
S1131AE03D039093890080938800E1E8F0E08081D1
S1131AF0856080830895E1E8F0E080818A7F8083B7
S1131B00EFE6F0E080818D7F808386B3826086BBC0
S1131B100895359B0EC08091A30281508093A30247
S1131B208B3F9CF48BEF8093A30281E08093B302FC
S1131B300CC08091A3028F5F8093A30286302CF0A7
S1131B4085E08093A3021092B302349B0EC080916F
S1131B50A20281508093A2028B3F9CF48BEF80936E
S1131B60A20281E08093B2020CC08091A2028F5F36
S1131B708093A20286302CF085E08093A20210921A
S1131B80B2024D9B0EC08091A10281508093A102AC
S1131B908B3F9CF48BEF8093A10281E08093B10290
S1131BA00CC08091A1028F5F8093A10286302CF03B
S1131BB085E08093A1021092B1024A9B0EC08091ED
S1131BC0A00281508093A0028B3F9CF48BEF809302
S1131BD0A00281E08093B0020CC08091A0028F5FCC
S1131BE08093A00286302CF085E08093A0021092AE
S1131BF0B002329B0EC080919F02815080939F025D
S1131C008B3F9CF48BEF80939F0281E08093AF0223
S1131C100CC080919F028F5F80939F0286302CF0CE
S1131C2085E080939F021092AF021A9B0EC08091B0
S1131C309E02815080939E028B3F9CF48BEF809395
S1131C409E0281E08093AE020CC080919E028F5F61
S1131C5080939E0286302CF085E080939E02109241
S1131C60AE02199B0EC080919D02815080939D020B
S1131C708B3F9CF48BEF80939D0281E08093AD02B7
S1131C800CC080919D028F5F80939D0286302CF062
S1131C9085E080939D021092AD02319B0DC080912E
S1131CA09C02815080939C028B3F9CF48BEF809329
S1131CB09C021092AB020DC080919C028F5F8093B6
S1131CC09C02863034F085E080939C0281E080930E
S1131CD0AB021C9B0EC080919B02815080939B029F
S1131CE08B3F9CF48BEF80939B0281E08093AA024C
S1131CF00CC080919B028F5F80939B0286302CF0F6
S1131D0085E080939B021092AA021D9B0EC08091D5
S1131D109A02815080939A028B3F9CF48BEF8093BC
S1131D209A0281E08093A9020CC080919A028F5F8D
S1131D3080939A0286302CF085E080939A02109268
S1131D40A9024C9B0EC08091990281508093990204
S1131D508B3F9CF48BEF8093990281E08093A802DF
S1131D600CC0809199028F5F8093990286302CF089
S1131D7085E0809399021092A8024B9B0EC080913B
S1131D8098028150809398028B3F9CF48BEF809350
S1131D90980281E08093A7020CC0809198028F5F23
S1131DA08093980286302CF085E0809398021092FC
S1131DB0A702189B0EC080919702815080939702CE
S1131DC08B3F9CF48BEF8093970281E08093A60273
S1131DD00CC0809197028F5F8093970286302CF01D
S1131DE085E0809397021092A6024F9B0EC08091CB
S1131DF096028150809396028B3F9CF48BEF8093E4
S1131E00960281E08093A5020CC0809196028F5FB8
S1131E108093960286302CF085E08093960210928F
S1131E20A5024E9B0EC0809195028150809395022D
S1131E308B3F9CF48BEF8093950281E08093A40206
S1131E400895809195028F5F8093950286302CF0DF
S1131E5085E0809395021092A40208955058BB2700
S1131E60AA270E94460F0C94B9100E94AB1038F0B8
S1131E700E94B21020F039F49F3F19F426F40C9418
S1131E80A8100EF4E095E7FB0C94A210E92F0E9431
S1131E90CA1058F3BA17620773078407950720F02E
S1131EA079F4A6F50C94EC100EF4E0950B2EBA2FF1
S1131EB0A02D0B01B90190010C01CA01A00111244C
S1131EC0FF27591B99F0593F50F4503E68F11A16F8
S1131ED0F040A22F232F342F4427585FF3CF469589
S1131EE037952795A795F0405395C9F77EF41F16AB
S1131EF0BA0B620B730B840BBAF09150A1F0FF0F75
S1131F00BB1F661F771F881FC2F70EC0BA0F621F60
S1131F10731F841F48F4879577956795B795F79550
S1131F209E3F08F0B0CF9395880F08F09927EE0FE5
S1131F309795879508950E947E1008F481E008958E
S1131F400E94B40F0C94B9100E94B21058F00E9471
S1131F50AB1040F029F45F3F29F00C94A21051110A
S1131F600C94ED100C94A8100E94CA1068F39923E5
S1131F70B1F3552391F3951B550BBB27AA27621781
S1131F807307840738F09F5F5F4F220F331F441F8E
S1131F90AA1FA9F335D00E2E3AF0E0E832D09150C2
S1131FA05040E695001CCAF72BD0FE2F29D0660FAF
S1131FB0771F881FBB1F261737074807AB07B0E8F2
S1131FC009F0BB0B802DBF01FF2793585F4F3AF0F8
S1131FD09E3F510578F00C94A2100C94ED105F3FD5
S1131FE0E4F3983ED4F3869577956795B795F7957E
S1131FF09F5FC9F7880F911D9695879597F9089566
S1132000E1E0660F771F881FBB1F62177307840701
S1132010BA0720F0621B730B840BBA0BEE1F88F710
S1132020E09508950E94D21088F09F5798F0B92F38
S11320309927B751B0F0E1F0660F771F881F991FF9
S11320401AF0BA95C9F714C0B13091F00E94EC109F
S1132050B1E008950C94EC10672F782F8827B85FAF
S113206039F0B93FCCF3869577956795B395D9F751
S11320703EF490958095709561957F4F8F4F9F4F5B
S11320800895E89409C097FB3EF490958095709567
S113209061957F4F8F4F9F4F9923A9F0F92F96E9B0
S11320A0BB279395F695879577956795B795F11125
S11320B0F8CFFAF4BB0F11F460FF1BC06F5F7F4FC2
S11320C08F4F9F4F16C0882311F096E911C07723D4
S11320D021F09EE8872F762F05C0662371F096E8DD
S11320E0862F70E060E02AF09A95660F771F881FAC
S11320F0DAF7880F9695879597F90895990F000850
S1132100550FAA0BE0E8FEEF16161706E807F907C5
S1132110C0F012161306E407F50798F0621B730B60
S1132120840B950B39F40A2661F0232B242B252BE1
S113213021F408950A2609F4A140A6958FEF811D84
S1132140811D089597F99F6780E870E060E0089525
S11321509FEF80EC089500240A94161617061806BB
S11321600906089500240A94121613061406050697
S11321700895092E0394000C11F4882352F0BB0F28
S113218040F4BF2B11F460FF04C06F5F7F4F8F4F8B
S11321909F4F089557FD9058440F551F59F05F3FC6
S11321A071F04795880F97FB991F61F09F3F79F075
S11321B087950895121613061406551FF2CF4695F7
S11321C0F1DF08C0161617061806991FF1CF869579
S11321D07105610508940895E894BB27662777275D
S11321E0CB0197F908950E947E1008F48FEF0895AB
S11321F00E940B110C94B9100E94AB1038F00E948D
S1132200B21020F0952311F00C94A2100C94A81095
S113221011240C94ED100E94CA1070F3959FC1F321
S1132220950F50E0551F629FF001729FBB27F00D80
S1132230B11D639FAA27F00DB11DAA1F649F6627D5
S1132240B00DA11D661F829F2227B00DA11D621F24
S1132250739FB00DA11D621F839FA00D611D221FDE
S1132260749F3327A00D611D231F849F600D211DC2
S1132270822F762F6A2F11249F5750409AF0F1F045
S113228088234AF0EE0FFF1FBB1F661F771F881FAE
S113229091505040A9F79E3F510580F00C94A21034
S11322A00C94ED105F3FE4F3983ED4F38695779554
S11322B06795B795F795E7959F5FC1F7FE2B880F54
S11322C0911D9695879597F90895AA1BBB1B51E11B
S11322D007C0AA1FBB1FA617B70710F0A61BB70B92
S11322E0881F991F5A95A9F780959095BC01CD0137
S11322F00895A1E21A2EAA1BBB1BFD010DC0AA1F43
S1132300BB1FEE1FFF1FA217B307E407F50720F05A
S1132310A21BB30BE40BF50B661F771F881F991FD5
S11323201A9469F760957095809590959B01AC011E
S1132330BD01CF010895A29FB001B39FC001A39F27
S1132340700D811D1124911DB29F700D811D1124EA
S1132350911D0895FB01DC0102C001900D924150D2
S11323605040D8F70895A8E1B0E042E050E00C9462
S1132370C0110E94CE11272F0C94CF11DC01CB0188
S1132380FC01F999FECF06C0F2BDE1BDF89A319681
S113239000B40D9241505040B8F70895262FF99992
S11323A0FECF1FBA92BD81BD20BD0FB6F894FA9A34
S10F23B0F99A0FBE01960895F894FFCF2F
S11323BC22D8AFCCECC1CCB746AE50A5D59CD894A2
S11323CC528D3A868A7F317934738E6D38682E63D8
S11323DC655EE0599A558F51BC4D184AA646634325
S11323EC4B405E3D943AEF376D350C33CA30A32E17
S11323FC982CA82AD02810276325CC234822D72030
S113240C791F291EE91CB91B971A83197A187F178F
S113241C8E16A915CF14FD1335137612BF11111195
S113242C6910C90F310F9E0E130E8C0D0B0D900CF1
S113243C1A0CAA0B3D0BD50A720A130AB8096009C7
S113244C0B09BB086D082308DB0796075407140710
S113245CD8069D0665062F06FB05C90598056A0571
S113246C3E051305EA04C1049B04760452043004AB
S113247C0E04EE03D003B203950379035F03450303
S113248C2C031403FD02E602D102BC02A80294023E
S113249C81026F025D024C023C022C021C020D02F2
S11324ACFF01F101E301D601C901BD01B101A5018F
S11324BC9A018F0185017B01710167015E01550150
S11324CC4D0144013C0134012C0111700B04F70A39
S11324DC031E0A10E70906CB09176C0A0000000258
S10724ECAABBDD00A6
S9030000FC
