:100000000C9434010C9451010C9451010C94510145
:100010000C9451010C9451010C9451010C94510118
:100020000C9451010C9482030C9451010C945E03C6
:100030000C9451010C9451010C9451010C945101F8
:100040000C9451010C9451010C943A030C94160336
:100050000C9407030C9451010C9451010C94510120
:100060000C9451010C94510100C0C101C30302C2A0
:10007000C60607C705C5C404CC0C0DCD0FCFCE0EE8
:100080000ACACB0BC90908C8D81819D91BDBDA1A58
:100090001EDEDF1FDD1D1CDC14D4D515D71716D6C8
:1000A000D21213D311D1D010F03031F133F3F23238
:1000B00036F6F737F53534F43CFCFD3DFF3F3EFEA8
:1000C000FA3A3BFB39F9F83828E8E929EB2B2AEA18
:1000D000EE2E2FEF2DEDEC2CE42425E527E7E62688
:1000E00022E2E323E12120E0A06061A163A3A262F8
:1000F00066A6A767A56564A46CACAD6DAF6F6EAE68
:10010000AA6A6BAB69A9A86878B8B979BB7B7ABAD7
:10011000BE7E7FBF7DBDBC7CB47475B577B7B67647
:1001200072B2B373B17170B05090915193535292B7
:1001300096565797559594549C5C5D9D5F9F9E5E27
:100140005A9A9B5B99595898884849894B8B8A4A97
:100150004E8E8F4F8D4D4C8C448485458747468607
:10016000824243834181804000C1814001C080417F
:1001700001C0804100C1814001C0804100C1814077
:1001800000C1814001C0804101C0804100C1814067
:1001900000C1814001C0804100C1814001C0804157
:1001A00001C0804100C1814001C0804100C1814047
:1001B00000C1814001C0804100C1814001C0804137
:1001C00001C0804100C1814000C1814001C0804127
:1001D00001C0804100C1814001C0804100C1814017
:1001E00000C1814001C0804101C0804100C1814007
:1001F00000C1814001C0804100C1814001C08041F7
:1002000001C0804100C1814000C1814001C08041E6
:1002100001C0804100C1814001C0804100C18140D6
:1002200000C1814001C0804100C1814001C08041C6
:1002300001C0804100C1814001C0804100C18140B6
:1002400000C1814001C0804101C0804100C18140A6
:1002500000C1814001C0804100C1814001C0804196
:1002600001C0804100C1814011241FBECFEFD8E002
:10027000DEBFCDBF12E0A0E0B1E0EEE8F4E202C0E4
:1002800005900D92A433B107D9F724E0A4E3B2E0BE
:1002900001C01D92A734B207E1F70E94CB040C9471
:1002A00045120C940000ECE7F0E080818F7B8083A6
:1002B00080818F77808380818F7D80838081877F1D
:1002C000808380818B7F808380818D7F808380810C
:1002D0008E7F8083EAE7F0E0808181608083808187
:1002E000826080838081846080838081877F808337
:1002F0008081806280838081806480838081806847
:100300008083EBE7F0E080818E7F808380818D7F2A
:10031000808380818B7F808380818F7B8083089521
:10032000ECE7F0E080818064808380818F77808338
:1003300080818F7D80838081877F808380818B7F98
:10034000808380818D7F808380818E7F8083EAE7B8
:10035000F0E0808181608083808182608083808101
:10036000846080838081877F8083808180628083B6
:10037000808180648083808180688083EBE7F0E007
:1003800080818E7F808380818D7F808380818B7F41
:10039000808380818F7B808308954F925F926F92DC
:1003A0007F928F929F92AF92BF92CF92DF92EF9205
:1003B000FF920F931F93CF93DF93CDB7DEB72797AD
:1003C0000FB6F894DEBF0FBECDBF2B013C01490133
:1003D0005A01E982FA820B831C8380917800209174
:1003E000790030E0322F2227282B3F832E83B9015A
:1003F00080E090E00E94AA106B017C011092B5028F
:100400008E819F818D5A92408C33914030F081E0F3
:100410008093B5028CE697E047C029813A814B81F1
:100420005C81C501B4010E9461119B01AC01C7014F
:10043000B6010E94611169837A838B839C8320E0DB
:1004400030E040E854E4C301B2010E9461112B0185
:100450003C01A5019401C701B6010E9461119B01F5
:10046000AC01C301B2010E94970F9B01AC016981ED
:100470007A818B819C810E94091020E030E04AE75C
:1004800054E40E94970F20E030E040E251E40E94E3
:10049000611121E230EB42E750E40E9409100E9412
:1004A0007B10CB018C599F4F27960FB6F894DEBF77
:1004B0000FBECDBFDF91CF911F910F91FF90EF90B5
:1004C000DF90CF90BF90AF909F908F907F906F9074
:1004D0005F904F9008958F929F92AF92BF92CF926C
:1004E000DF92EF92FF920F931F93CF93DF936B01F5
:1004F0007C0180917800C0917900D0E0DC2FCC277E
:10050000C82BBE0180E090E00E94AA104B015C0164
:10051000C258D109CD35D34030F081E08093B50287
:100520008CE697E067C01092B502A7019601C5015D
:10053000B4010E9461116B017C01A501940160E08E
:1005400070E080E894E40E94970F9B01AC01C70122
:10055000B6010E9409100E947B10EB0121E030E0FF
:1005600080E090E02D3831050CF044C0F901EE0F29
:10057000FF1FE050FF4FA081B181CA17DB0768F46D
:10058000C901880F991F880F991F880F991FB901FA
:10059000660F771F860F971F2AC0215031098901E6
:1005A000000F111FC80180509F4FFC0160817181B5
:1005B000AB014C1B5D0BCA01880F991F440F551FDF
:1005C000440F551F440F551F840F951F6A1B7B0B4B
:1005D0000E94CE11220F331F220F331F220F331F11
:1005E000200F311FCB01820F931F2EE830E02F5FC9
:1005F0003F4FB8CFDF91CF911F910F91FF90EF90B8
:10060000DF90CF90BF90AF909F908F9008951F92F2
:100610000F920FB60F9211248F9388B1877F88B9FC
:100620008F910F900FBE0F901F9018951F920F92F1
:100630000FB60F9211242F933F934F935F936F93B5
:100640007F938F939F93AF93BF93EF93FF930E94FA
:10065000FF0CFF91EF91BF91AF919F918F917F918F
:100660006F915F914F913F912F910F900FBE0F901F
:100670001F9018951F920F920FB60F9211242F936F
:100680003F934F935F936F937F938F939F93AF931A
:10069000BF93EF93FF930E94B50CFF91EF91BF9131
:1006A000AF919F918F917F916F915F914F913F910A
:1006B0002F910F900FBE0F901F9018951F920F92C1
:1006C0000FB60F9211242F933F934F935F936F9325
:1006D0007F938F939F93AF93BF93EF93FF930E946A
:1006E0003D0DFF91EF91BF91AF919F918F917F91C0
:1006F0006F915F914F913F912F910F900FBE0F908F
:100700001F9018951F920F920FB60F9211248F937E
:100710008FEF80939D028F910F900FBE0F901F90CF
:1007200018951092B200E1EBF0E080818760808341
:10073000E0E7F0E08081816080830895DC0161154D
:1007400022E07207D8F0CB01840F951F81319240CF
:10075000B8F4725041155105A9F0FB01EE0FFF1FCF
:10076000E352FD4F81818C93808111968C93119778
:100770006F5F7F4F415051091296ECCF81E0089591
:1007800081E0089580E00895FC01603132E0730754
:10079000F0F0CB01840F951F81329240C0F42111FB
:1007A00016C0CB018051924041155105A1F0DC01EA
:1007B000AA0FBB1FA354BD4F11963C9111973083D4
:1007C0003C9131830196415051093296EDCF22235D
:1007D00021F080E003C080E001C081E0603192E060
:1007E000790720F1DA01A60FB71FA132B240F0F469
:1007F0002130E1F46051724041155105D1F0808102
:1008000090E0982F8827DB01AA0FBB1FA354BD4F90
:1008100011969C938E932181820F911D8D939C93B1
:1008200032966F5F7F4F41505109E6CF213021F45E
:1008300002C080E0089581E00895CF93DF93EC013A
:1008400080915D0290915E028C3D2FEF920788F0BF
:10085000C03F81E0D80740F46096BE0180916102FC
:10086000909162020E94221210925E0210925D022A
:1008700005C0019690935E0280935D0260915D02D7
:1008800070915E02CE0102960E9422128091500267
:100890008C3338F11092500280915B0290915C028F
:1008A000019690935C0280935B02CC9790F010923B
:1008B0005C0210925B026091590270915A026F5F64
:1008C0007F4F70935A0260935902CE0106960E94A0
:1008D000221260915B0270915C02CE0104960E942C
:1008E000221280914F028C3338F110924F02809186
:1008F00057029091580201969093580280935702A4
:10090000CC9790F0109258021092570260915502C5
:10091000709156026F5F7F4F70935602609355023D
:10092000CE010A960E9422126091570270915802DD
:10093000CE0108960E94221280914E028C3338F12B
:1009400010924E028091530290915402019690931E
:10095000540280935302CC9790F01092540210925C
:10096000530260915102709152026F5F7F4F7093FA
:10097000520260935102CE010E960E9422126091A3
:10098000530270915402CE010C960E942212CE01A5
:10099000DF91CF91089588E893E1909306038093C7
:1009A000050384EC99E0909304038093030380EDA6
:1009B00097E09093020380930103809161029091EC
:1009C00062020E941C12EC019093600280935F020D
:1009D00002960E941C1290935E0280935D02CE01EB
:1009E00004960E941C1290935C0280935B02CE01DD
:1009F00006960E941C1290935A0280935902CE01CF
:100A000008960E941C129093580280935702CE01C0
:100A10000A960E941C129093560280935502CE01B2
:100A20000C960E941C129093540280935302CE01A4
:100A30000E960E941C12909352028093510214B899
:100A40008FEF85B917B888B91AB88BB987B18860A4
:100A500087B988B1877F88B987B1806287B987B144
:100A6000806187B98AB180628AB98AB184608AB9A3
:100A700084B1846084B984B1826084B987B18460B0
:100A800087B988B18E7F88B90E94910378940E94BB
:100A9000900180E180939C02F894E12C00E815E23B
:100AA00020E030E040E060919C0280E00E940F096D
:100AB00080939B0223E030E040E352E061E084E376
:100AC0000E94AE0B80939B0278940E945A098093F7
:100AD0009B02A8959EE088E10FB6F894A8958093B4
:100AE00060000FBE909360000E9490010E9469090F
:100AF000811136C1A895EDEBF2E08281938190934C
:100B000000038093FF02848195819093FE0280937D
:100B1000FD02C085D185D0930603C0930503C2842E
:100B2000D384D0920403C0920303648575857093C7
:100B30000203609301038681978121E080FF20E01A
:100B400020934B0221E081FF20E020934A0221E024
:100B500082FF20E02093490221E083FF20E02093E0
:100B6000480221E084FF20E02093470221E085FF36
:100B700020E02093460221E086FF20E020934502FA
:100B800021E087FF20E02093440221E090FF20E055
:100B90002093430231E091FF30E03093420231E094
:100BA00092FF30E03093410231E093FF30E0309328
:100BB000400231E094FF30E030933F0231E095FF96
:100BC00030E030933E0231E096FF30E030933D025A
:100BD000892F881F8827881F80933C0280913B02C1
:100BE000281741F0222319F00E945301B5C00E943A
:100BF0009001B2C0222391F180E090E00E94AA10FF
:100C00002B013C01B60180E090E00E94AA104B014C
:100C10005C01BE0180E090E00E94AA108301720195
:100C2000A50194010E94CD01BC0180E090E00E94EA
:100C3000AA1020E030E040E251E40E94091020E0D8
:100C400030E040E251E40E94970F60938D02709370
:100C50008E0280938F02909390021FC080E090E0FC
:100C60000E94AA100E946B02BC0180E090E00E94EA
:100C7000AA1020E030E040E251E40E94091020E098
:100C800030E040E251E40E94970F60938D02709330
:100C90008E0280938F029093900280916402E82FDD
:100CA000F0E0EE0FFF1FEE0FFF1FEB59FD4F4091DD
:100CB0008D0250918E0260918F027091900240835C
:100CC0005183628373838F5F809364028A3010F054
:100CD000109264021092910210929202109293026A
:100CE00010929402C0E0D0E0CA30D105FCF4FE01BD
:100CF000EE0FFF1FEE0FFF1FEB59FD4F608171815B
:100D000082819381209191023091920240919302CD
:100D1000509194020E94980F6093910270939202F6
:100D200080939302909394022196DECF20E030E0EE
:100D300040E251E46091910270919202809193029D
:100D4000909194020E940910609391027093920214
:100D500080939302909394028091430280933B028C
:100D600080919D02882309F468C00E94F20D1092C0
:100D70009D0280919A028F5F80939A028D3308F4CE
:100D800050C010929A0290913902809138022091BD
:100D90003702892B11F4222329F0809150028F5FB2
:100DA0008093500280913A02882329F080914F026B
:100DB0008F5F80934F0280913402882329F08091C5
:100DC0004E028F5F80934E0291E0809150028C33EF
:100DD00008F490E081E020914F022C3308F480E089
:100DE000892B91E020914E022C3308F490E0811180
:100DF00002C0992351F080915F02909160020E949D
:100E00001D049093600280935F0280914C02909148
:100E10004D028230910528F0019790934D02809306
:100E20004C0280914202882321F081E0809363028A
:100E300004C08091B40280936302C0909102D0906C
:100E40009202E0909302F09094026091FF02709100
:100E5000000380E090E00E94AA10D1E0A701960173
:100E60000E945C1118160CF0D0E0C0916302DD23E3
:100E700051F0CC2341F090914B0280914A02892B92
:100E800080933A0202C010923A026091FD02709182
:100E9000FE0280E090E00E94AA109B01AC01D1E02C
:100EA000C701B6010E94041088230CF0D0E0CC23C7
:100EB00079F0DD2369F080914902809339028091B5
:100EC000480280933802809147028093370206C01F
:100ED000109239021092380210923702C0903902F3
:100EE000D0903802109137028C2D8D2911F41123E6
:100EF00031F088E592E090934D0280934C02C091CE
:100F0000440281E020914C0230914D0223303105A2
:100F100008F480E0C82BC0933602E0904602E092CD
:100F20003502F0904502D0916302FD22F092340226
:100F300020E030E048EC52E460919102709192021E
:100F400080919302909194020E94980F20E030E0EB
:100F500048EC52E40E9461110E947B107093E00201
:100F60006093DF021092960210929502DD2331F019
:100F700081E090E090939602809395028091B10277
:100F8000882349F080919502909196028260909317
:100F90009602809395028091B002882349F0809157
:100FA00095029091960284609093960280939502A8
:100FB0008091AF02882349F080919502909196022A
:100FC000886090939602809395028091B302882363
:100FD00049F08091950290919602806190939602DB
:100FE000809395028091B202882349F08091950206
:100FF00090919602806290939602809395028091E0
:10100000AE02882349F08091950290919602806407
:1010100090939602809395028091AD02882349F0C7
:1010200080919502909196028068909396028093A9
:10103000950280919502909196029093E20280939E
:10104000E10210929602109295028091BC028823D0
:1010500031F021E030E0309396022093950288230E
:1010600049F0809195029091960282609093960249
:10107000809395028091BB02882349F0809195026C
:10108000909196028460909396028093950280914D
:10109000BA02882349F08091950290919602886067
:1010A00090939602809395028091B902882349F02B
:1010B0008091950290919602806190939602809320
:1010C00095028091B702882349F080919502909112
:1010D0009602806290939602809395028091B60268
:1010E000882349F0809195029091960280649093B4
:1010F0009602809395028091B802882349F08091EE
:101100009502909196028068909396028093950242
:101110008091B502882349F08091950290919602C2
:101120009064909396028093950280913C02811185
:1011300009C08091950290919602906890939602D2
:1011400080939502EDEDF2E08091950290919602E8
:101150009783868380915B0290915C029187808760
:101160008091590290915A02938782878091570209
:1011700090915802958784878091550290915602EC
:10118000978786878091530290915402918B808B30
:101190008091510290915202938B828B109298020F
:1011A000109297021092990280913A02882319F0C6
:1011B00080E280939802CC2029F08091980280618F
:1011C00080939802DD2019F080E28093970211232A
:1011D00029F080919702846080939702CC2329F0B4
:1011E00080919802846080939802EE2019F084E048
:1011F00080939902FF2029F0809199028260809368
:101200009902809197028BB98091990285B9F894DF
:10121000439903C08091980288B9789467CCCF92A3
:10122000DF92EF92FF920F931F93CF938FEF860F72
:10123000873FA0F55E2D68017901942F862F60937A
:10124000180329E13CE0309315032093140324E2B2
:101250003CE0309313032093120325E63CE03093E7
:101260001703209316032DE23CE0309311032093E3
:10127000100310920F0310920E03052FA701960181
:10128000692F0E94F20BC82F81110BC00E94660DBE
:10129000882331F081E080932F0203C0C2E001C0B7
:1012A000C3E08C2FCF911F910F91FF90EF90DF90B3
:1012B000CF90089580912F02813049F4E09114037A
:1012C000F0911503099510922F0280E0089586E0B1
:1012D0000895CF93DF931F92CDB7DEB780912F0291
:1012E000811192C0CE0101960E94710D813009F0EA
:1012F0008DC08981813019F08230D9F089C0E091A8
:101300001003F091110349E053E06BE073E08DE0CE
:1013100093E0099581117EC080910D03909118038F
:10132000891711F0811178C082E00E946A0D80E077
:1013300076C0A0910B03B0910C034C91409308032D
:1013400081E08093070320E030E020C0F901EE0F38
:10135000FF1FE20FF31FE65EFD4F90819923C9F056
:10136000491312C0F901EE0FFF1F2E0F3F1FF901A5
:10137000E65EFD4F0180F281E02D69E073E0CD0172
:1013800009958093070305C02F5F3F4F2730310534
:10139000ECF280910D03882309F440C0809107038B
:1013A000882309F1E0910B03F0910C0321E030E078
:1013B00030930A0320930903909108039068908367
:1013C00040910B0350910C032091090330910A03C3
:1013D000B9016F5F7F4F70930A0360930903FA01AD
:1013E000E20FF31F8083E0911603F0911703409101
:1013F000090350910A0360910B0370910C038091D3
:101400001803099580E00BC086E009C087E007C09B
:1014100087E005C080E003C080E001C080E00F905D
:10142000DF91CF910895FC012FEF3FEF12C0DF0154
:101430001196E081E2278E2F90E0FC01E859FE4FE3
:10144000E491232F2E27FC01E859FF4F3491BA0174
:10145000FD01AB0141505109672B49F7832F90E003
:10146000982F8827822B0895FB0120813181253018
:10147000310591F4FC0160E071812281622B6F5F84
:101480007F4F21E041E050E003960E94C40388238F
:1014900029F00E94580D089583E0089580E0089592
:1014A000CF93DF93DB012D913C912630310538F14C
:1014B00020E0EC0139814A81242BF901319640E08A
:1014C0005B812C81422BAD819A0121503109283753
:1014D0003105B8F4242F220FA21315C0EB0121E02F
:1014E000BF0106960E94C403882319F00E94580D7C
:1014F0000BC085E090E09983888380E005C083E09D
:1015000003C083E001C083E0DF91CF9108950F9382
:101510001F93CF93DF93DB012D913C912530310553
:10152000E1F520E0FC0131814281242BF901319663
:10153000DC0114962C911497022F10E0A801415061
:1015400051094D37510558F5EB011982188233E0E6
:101550003C93488159814F5F5F4F59834883220FE5
:1015600011962C93288139812F5F3F4F398328832F
:1015700020E0A801BF0102960E94C403882319F04D
:101580000E94580D0DC0000F111F88819981080F0E
:10159000191F1983088380E003C083E001C083E042
:1015A000DF91CF911F910F910895CF92DF92EF922B
:1015B000FF920F931F93CF93DF93FC01DB018D917B
:1015C0009C910A9708F468C080E091812281822B67
:1015D0008C010F5F1F4FB0E0CB2F8381D82F848108
:1015E000C82B80E095812681822B019640E05781AF
:1015F0002085422BA1859E01215031092D373105CF
:1016000008F04CC04115510509F44AC04A3751054C
:1016100008F048C02A2F30E0DA01AA0FBB1FA2173A
:10162000B30709F041C07B016F0121E0BC01CF018C
:101630000A960E94C40381112AC0D70111961C92F8
:101640001E9287E1F60180838D919C9111970196FE
:1016500011969C938E938C2F880F81838D919C91F2
:10166000119701968D939C9320E0AE01B801C601BD
:1016700002960E94C40381110AC0CC0FDD1FD7015E
:101680002D913C9111972C0F3D1F2D933C93882356
:1016900069F00E94580D0BC080E009C083E007C0CC
:1016A00083E005C083E003C083E001C080E0DF91F8
:1016B000CF911F910F91FF90EF90DF90CF90089501
:1016C0000F931F93CF93DF93DB012D913C91253036
:1016D0003105E1F520E0FC0131814281242B2F5FAF
:1016E0003F4F40E05381E4818A010E2BA801415015
:1016F00051094C37510560F5EB01FC011982188244
:1017000044E04083488159814F5F5F4F598348834C
:10171000402F440F4183488159814F5F5F4F598368
:101720004883A801B90102960E949E03882319F0FC
:101730000E94580D0EC0A801440F551F0881198141
:10174000400F511F5983488380E003C083E001C0EC
:1017500083E0DF91CF911F910F910895CF93DF9395
:10176000E9012296C032D105F0F480931B0382E098
:1017700090E090931A0380931903662311F08FEF82
:1017800001C080E080931C032115310571F0BA017E
:10179000A9018DE193E00E941312D0931A03C09324
:1017A000190380E003C084E001C080E0DF91CF91A5
:1017B00008950F931F93CF93DF938B01C09119036B
:1017C000D0911A03AE016BE173E001960E941312EF
:1017D0002196F801D183C08380E0DF91CF911F91E2
:1017E0000F910895F894E2ECF0E0808186608083A8
:1017F000E0ECF0E08081826080838FEC8093C40015
:10180000E1ECF0E080818061808360E080E00E9414
:101810007F0D87B1886087B988B1877F88B988B123
:10182000877F88B988E290E00E94A40D789480E0D8
:101830000895F8941092410360E081E00E947F0DCA
:101840000E94C70D78940895F89460E080E00E94AB
:101850007F0D0E94E40D78940895EF92FF920F930C
:101860001F93CF93DF93F89420913B0330913C0377
:1018700024303105F8F07A018B01EC0160913B03D3
:1018800070913C0387E493E00E94130A892BA1F432
:1018900080914703888380913B0390913C03039799
:1018A000F7019183808388E493E0F801918380833A
:1018B00080E003C085E001C085E07894DF91CF919E
:1018C0001F910F91FF90EF900895F894909141032C
:1018D000913009F047C0282FCB0101979093400326
:1018E00080933F0361E070E070933E0360933D039B
:1018F000FC01208320913D0330913E03420F531F92
:1019000050933E0340933D0360913D0370913E032D
:101910000E94130A492F20913D0330913E03B901E3
:101920006F5F7F4F70933E0360933D03F901E95B66
:10193000FC4F808380913D0390913E039C012F5F7B
:101940003F4F30933E0320933D03FC01E95BFC4F86
:10195000408381E08093420361E080E00E947F0D3C
:1019600080E001C085E0789408959091C600809150
:101970004103813061F028F0823011F1833021F091
:101980003CC00E94C70D39C00E94C70D36C01092DE
:101990003C0310923B0320913B0330913C03A9018F
:1019A0004F5F5F4F50933C0340933B03F901E95B6A
:1019B000FC4F908382E0809341030E94C70D1DC0BD
:1019C00020913B0330913C032F3F310509F080F417
:1019D00020913B0330913C03A9014F5F5F4F50932F
:1019E0003C0340933B03F901E95BFC4F908303C048
:1019F00083E0809341030E94C70D80E00895CF9358
:101A000080914203882319F0813039F032C060E0C0
:101A100081E00E947F0DC0E02DC080913D03909138
:101A20003E03892BD9F0E0913F03F0914003808180
:101A30000E94A00D80913F039091400301969093E6
:101A4000400380933F0380913D0390913E030197B3
:101A500090933E0380933D03C0E00CC083E00E945E
:101A60006A0DC82F60E081E00E947F0D1092420352
:101A700001C0C0E08C2FCF910895CF938091410396
:101A8000882319F0823031F00AC080E00E946A0D8C
:101A9000C82F06C081E00E946A0DC82F01C0C0E0B7
:101AA0000E94E40D81E0809341038C2FCF91089533
:101AB000813051F018F0873019F004C080E00895AB
:101AC00086E0089584E0089582E00895109243032B
:101AD00081E0089591E0909343038093440381E073
:101AE0000895FC0190914303992339F080914403B8
:101AF00080831092430381E0089580E00895E1EC33
:101B0000F0E0908198649083882321F0808180693F
:101B1000808305C0E1ECF0E080818F7680836623CE
:101B200049F0E1ECF0E080818862808388B18860D0
:101B300088B90895E1ECF0E080818F7D808308957D
:101B40008093C60081E008959C01A9E0BDE30E9456
:101B5000041220E23EE440E050E00E94E2113093A3
:101B600046032093450310928000E1E8F0E01082E4
:101B70001092820080818A7F8083EFE6F0E080818E
:101B80008D7F808386B3826086BB81E0089510924A
:101B90008500109284008091450390914603892B23
:101BA00069F0EFE6F0E080818260808380914503F8
:101BB000909146039093890080938800E1E8F0E0DB
:101BC0008081856080830895E1E8F0E080818A7FEC
:101BD0008083EFE6F0E080818D7F808386B3826032
:101BE00086BB0895359B0EC08091AC0281508093D6
:101BF000AC028B3F9CF48BEF8093AC0281E080932E
:101C0000BC020CC08091AC028F5F8093AC02863026
:101C10002CF085E08093AC021092BC02349B0EC085
:101C20008091AB0281508093AB028B3F9CF48BEF91
:101C30008093AB0281E08093BB020CC08091AB0229
:101C40008F5F8093AB0286302CF085E08093AB02EF
:101C50001092BB024D9B0EC08091AA0281508093CE
:101C6000AA028B3F9CF48BEF8093AA0281E08093C1
:101C7000BA020CC08091AA028F5F8093AA028630BC
:101C80002CF085E08093AA021092BA024A9B0EC003
:101C90008091A90281508093A9028B3F9CF48BEF25
:101CA0008093A90281E08093B9020CC08091A902BF
:101CB0008F5F8093A90286302CF085E08093A90283
:101CC0001092B902329B0EC08091A802815080937D
:101CD000A8028B3F9CF48BEF8093A80281E0809355
:101CE000B8020CC08091A8028F5F8093A802863052
:101CF0002CF085E08093A8021092B8021A9B0EC0C7
:101D00008091A70281508093A7028B3F9CF48BEFB8
:101D10008093A70281E08093B7020CC08091A70254
:101D20008F5F8093A70286302CF085E08093A70216
:101D30001092B702199B0EC08091A6028150809329
:101D4000A6028B3F9CF48BEF8093A60281E08093E8
:101D5000B6020CC08091A6028F5F8093A6028630E7
:101D60002CF085E08093A6021092B602319B0EC043
:101D70008091A50281508093A5028B3F9CF48BEF4C
:101D80008093A50281E08093B4020CC08091A502EB
:101D90008F5F8093A50286302CF085E08093A502AA
:101DA0001092B4021C9B0EC08091A40281508093BB
:101DB000A4028B3F9CF48BEF8093A40281E080937C
:101DC000B3020CC08091A4028F5F8093A40286307E
:101DD0002CF085E08093A4021092B3021D9B0EC0EC
:101DE0008091A30281508093A3028B3F9CF48BEFE0
:101DF0008093A30281E08093B2020CC08091A30281
:101E00008F5F8093A30286302CF085E08093A3023D
:101E10001092B2024C9B0EC08091A202815080931E
:101E2000A2028B3F9CF48BEF8093A20281E080930F
:101E3000B1020CC08091A2028F5F8093A202863013
:101E40002CF085E08093A2021092B1024B9B0EC051
:101E50008091A10281508093A1028B3F9CF48BEF73
:101E60008093A10281E08093B0020CC08091A10216
:101E70008F5F8093A10286302CF085E08093A102D1
:101E80001092B002189B0EC08091A00281508093E6
:101E9000A0028B3F9CF48BEF8093A00281E08093A3
:101EA000AF020CC08091A0028F5F8093A0028630A9
:101EB0002CF085E08093A0021092AF024F9B0EC0E1
:101EC00080919F02815080939F028B3F9CF48BEF07
:101ED00080939F0281E08093AE020CC080919F02AC
:101EE0008F5F80939F0286302CF085E080939F0265
:101EF0001092AE024E9B0EC080919E028150809344
:101F00009E028B3F9CF48BEF80939E0281E0809336
:101F1000AD02089580919E028F5F80939E0286306D
:101F20002CF085E080939E021092AD0208955058E7
:101F3000BB27AA270E94AF0F0C9422110E941411F4
:101F400038F00E941B1120F039F49F3F19F426F459
:101F50000C9411110EF4E095E7FB0C940B11E92F92
:101F60000E94331158F3BA17620773078407950765
:101F700020F079F4A6F50C9455110EF4E0950B2E93
:101F8000BA2FA02D0B01B90190010C01CA01A001CB
:101F90001124FF27591B99F0593F50F4503E68F126
:101FA0001A16F040A22F232F342F4427585FF3CF67
:101FB000469537952795A795F0405395C9F77EF438
:101FC0001F16BA0B620B730B840BBAF09150A1F081
:101FD000FF0FBB1F661F771F881FC2F70EC0BA0F07
:101FE000621F731F841F48F4879577956795B7958F
:101FF000F7959E3F08F0B0CF9395880F08F099278A
:10200000EE0F9795879508950E94E71008F481E0F8
:1020100008950E941D100C9422110E941B1158F06B
:102020000E94141140F029F45F3F29F00C940B1129
:1020300051110C9456110C9411110E94331168F334
:102040009923B1F3552391F3951B550BBB27AA2771
:1020500062177307840738F09F5F5F4F220F331FAB
:10206000441FAA1FA9F335D00E2E3AF0E0E832D073
:1020700091505040E695001CCAF72BD0FE2F29D076
:10208000660F771F881FBB1F261737074807AB0748
:10209000B0E809F0BB0B802DBF01FF2793585F4FBD
:1020A0003AF09E3F510578F00C940B110C945611A8
:1020B0005F3FE4F3983ED4F3869577956795B7959F
:1020C000F7959F5FC9F7880F911D9695879597F9AA
:1020D0000895E1E0660F771F881FBB1F6217730723
:1020E0008407BA0720F0621B730B840BBA0BEE1F38
:1020F00088F7E09508950E943B1188F09F5798F06B
:10210000B92F9927B751B0F0E1F0660F771F881FFC
:10211000991F1AF0BA95C9F714C0B13091F00E9416
:102120005511B1E008950C945511672F782F882729
:10213000B85F39F0B93FCCF3869577956795B3953D
:10214000D9F73EF490958095709561957F4F8F4FAC
:102150009F4F0895E89409C097FB3EF490958095B1
:10216000709561957F4F8F4F9F4F9923A9F0F92F5D
:1021700096E9BB279395F695879577956795B795DB
:10218000F111F8CFFAF4BB0F11F460FF1BC06F5FC1
:102190007F4F8F4F9F4F16C0882311F096E911C0D3
:1021A000772321F09EE8872F762F05C0662371F0F4
:1021B00096E8862F70E060E02AF09A95660F771F08
:1021C000881FDAF7880F9695879597F90895990FE4
:1021D0000008550FAA0BE0E8FEEF16161706E807F1
:1021E000F907C0F012161306E407F50798F0621B12
:1021F000730B840B950B39F40A2661F0232B242BE7
:10220000252B21F408950A2609F4A140A6958FEF05
:10221000811D811D089597F99F6780E870E060E057
:1022200008959FEF80EC089500240A94161617066F
:1022300018060906089500240A94121613061406B7
:1022400005060895092E0394000C11F4882352F01A
:10225000BB0F40F4BF2B11F460FF04C06F5F7F4FD2
:102260008F4F9F4F089557FD9058440F551F59F0B9
:102270005F3F71F04795880F97FB991F61F09F3F73
:1022800079F087950895121613061406551FF2CF9C
:102290004695F1DF08C0161617061806991FF1CFEC
:1022A00086957105610508940895E894BB27662713
:1022B0007727CB0197F908950E94E71008F48FEF74
:1022C00008950E9474110C9422110E94141138F088
:1022D0000E941B1120F0952311F00C940B110C940B
:1022E000111111240C9456110E94331170F3959F13
:1022F000C1F3950F50E0551F629FF001729FBB27FD
:10230000F00DB11D639FAA27F00DB11DAA1F649F98
:102310006627B00DA11D661F829F2227B00DA11D4B
:10232000621F739FB00DA11D621F839FA00D611DD1
:10233000221F749F3327A00D611D231F849F600DF2
:10234000211D822F762F6A2F11249F5750409AF01B
:10235000F1F088234AF0EE0FFF1FBB1F661F771FA7
:10236000881F91505040A9F79E3F510580F00C9472
:102370000B110C9456115F3FE4F3983ED4F386950D
:1023800077956795B795F795E7959F5FC1F7FE2B12
:10239000880F911D9695879597F90895AA1BBB1BE9
:1023A00051E107C0AA1FBB1FA617B70710F0A61B55
:1023B000B70B881F991F5A95A9F780959095BC0176
:1023C000CD010895A1E21A2EAA1BBB1BFD010DC071
:1023D000AA1FBB1FEE1FFF1FA217B307E407F507D5
:1023E00020F0A21BB30BE40BF50B661F771F881FB1
:1023F000991F1A9469F760957095809590959B0147
:10240000AC01BD01CF010895A29FB001B39FC001EF
:10241000A39F700D811D1124911DB29F700D811D10
:102420001124911D0895FB01DC0102C001900D9261
:1024300041505040D8F70895A8E1B0E042E050E0A4
:102440000C9429120E943712272F0C943812DC01A9
:10245000CB01FC01F999FECF06C0F2BDE1BDF89AAF
:10246000319600B40D9241505040B8F70895262F90
:10247000F999FECF1FBA92BD81BD20BD0FB6F89469
:0E248000FA9AF99A0FBE01960895F894FFCFCC
:10248E0022D8AFCCECC1CCB746AE50A5D59CD894D3
:10249E00528D3A868A7F317934738E6D38682E6309
:1024AE00655EE0599A558F51BC4D184AA646634356
:1024BE004B405E3D943AEF376D350C33CA30A32E48
:1024CE00982CA82AD02810276325CC234822D72061
:1024DE00791F291EE91CB91B971A83197A187F17C1
:1024EE008E16A915CF14FD1335137612BF111111C7
:1024FE006910C90F310F9E0E130E8C0D0B0D900C23
:10250E001A0CAA0B3D0BD50A720A130AB8096009F8
:10251E000B09BB086D082308DB0796075407140741
:10252E00D8069D0665062F06FB05C90598056A05A2
:10253E003E051305EA04C1049B04760452043004DC
:10254E000E04EE03D003B203950379035F03450334
:10255E002C031403FD02E602D102BC02A80294026F
:10256E0081026F025D024C023C022C021C020D0223
:10257E00FF01F101E301D601C901BD01B101A501C0
:10258E009A018F0185017B01710167015E01550181
:10259E004D0144013C0134012C0111D90B04600B97
:1025AE0003870A10500A06340A17D50A00000002E3
:0425BE00AABBDD00D7
:00000001FF
